:020000040800F2
:1000000018110020510B0008053300083D0B0008B3
:100010003D0B00083D0B00083D0B00083D0B0008A0
:10002000000000000000000000000000110C0008AB
:100030003D0B000800000000B10B0008811E000805
:100040006D0D00086D0D00086D0D00086D0D0008A8
:100050006D0D00086D0D00086D0D00086D0D000898
:100060006D0D00086D0D00086D0D00086D0D000888
:100070006D0D00086D0D00086D0D00086D0D000878
:10024C0053B94AB9002908BF00281CBF4FF0FF3131
:10025C004FF0FF3000F00CB8ADF1080C6DE904CE96
:10026C0000F008F8DDF804E0DDE9022304B0704783
:10027C00704700BF2DE9F04786468C460846089E1D
:10028C00154674461946002B40F0C1808542B2FADF
:10029C0082F245D94AB1C2F1200300FA02FC954022
:1002AC0094402EFA03F343EA0C0C4FEA154EA8B215
:1002BC00230CBCFBFEF80EFB18CC08FB00F943EA40
:1002CC000C43994528D9EB1808F1FF3704D299450E
:1002DC0002D9A8F102072B44A3EB0903A4B2B3FB88
:1002EC00FEFC0EFB1C330CFB00F044EA0344A04262
:1002FC0014D92C190CF1FF3304D2A04202D9ACF161
:10030C0002032C44241A43EA07401EB1D4400023B4
:10031C0034607360BDE8F0874746DDE76346F1E77C
:10032C0092BB431B01214FEA154EAFB2200CB3FB1D
:10033C00FEFC0EFB1C330CFB07F840EA034398450C
:10034C0061D9EB180CF1FF3004D2984502D9ACF10D
:10035C0002002B44A3EB0803A4B2B3FBFEFC0EFB80
:10036C001C330CFB07F744EA0344A7424DD92C1964
:10037C000CF1FF3304D2A74202D9ACF102032C4496
:10038C00E41B43EA0040C0E7C2F1200395409440CF
:10039C0020FA03F12EFA03F34FEA154E9040AFB258
:1003AC000343B1FBFEFC0EFB1C10190C0CFB07F8F5
:1003BC0041EA0041884522D969180CF1FF3004D27A
:1003CC00884502D9ACF102002944A1EB08019BB28B
:1003DC00B1FBFEFC0EFB1C110CFB07F743EA0143BF
:1003EC009F420ED9EB180CF1FF3104D29F4202D977
:1003FC00ACF102012B44DB1B41EA004193E7604660
:10040C00E3E76146F7E76046A4E76346B8E7834253
:10041C0006D916B9002108467CE7C6E900E0F9E7E1
:10042C00B3FA83F78FB9834201D3724508D8BEEB78
:10043C00020460EB030301209C461EB9002169E70E
:10044C003846FAE7C6E9004CF8E7C7F1200CBB4088
:10045C000EFA07F522FA0CF42EFA0CF1BA401C43F2
:10046C0020FA0CF3B8404FEA144901431FFA84FEFA
:10047C00B3FBF9F809FB18300B0C08FB0EFA43EA36
:10048C0000439A4540D9E31808F1FF3004D29A454D
:10049C0002D9A8F102002344A3EB0A0389B2B3FBEF
:1004AC00F9F809FB183308FB0EFE41EA03418E45AF
:1004BC002CD9611808F1FF3304D28E4502D9A8F16A
:1004CC000203214443EA0040A1EB0E01A0FB029879
:1004DC004145CE46434602D306D14D4504D20138A0
:1004EC00B9EB020E68EB0403002EA7D0B5EB0E029D
:1004FC0061EB030101FA0CFC22FA07F3F9404CEA18
:10050C000303C6E9003199E74046C5E74346D9E7FE
:10051C0013B5084C04210DEB010000F04FFE2046F2
:10052C00019902F0D7FE002142F2107003F0D5FBC6
:10053C00F0E700BF94470008014B1B68184700BF49
:10054C0008000020014B1860704700BF0800002015
:10055C0030B585B004460D4610220021684603F0E4
:10056C0034FC02238DF80230044B2A46214668469F
:10057C00019302F0E9FB05B030BD00BF4505000852
:10058C0080B505460E461746984602F05BF90346C1
:10059C0003F086FC0446DFF81890424649F8003018
:1005AC0039463046A84754F8090000F0E5FA00BF78
:1005BC0008000000034A0020536823F00203536034
:1005CC00704700BF0040024410B5EFF311841023B4
:1005DC0083F31288BFF36F8F084803683BB9084A4E
:1005EC00516A41F001015162516AC907FCD50133CE
:1005FC00036084F31188BFF36F8F10BD3C020020A1
:10060C000008024410B5EFF31184102383F3128811
:10061C00BFF36F8F0E490B6873B901220D4BD3E8F2
:10062C00EF1F002903D1C3E8E02F0028F7D184F392
:10063C001188BFF36F8F10BD012B08BF064803F163
:10064C00FF3302BF426A22F0010242620B60EEE706
:10065C003C020020380200200008024408B500F0DB
:10066C00FFFE044B044A1A60044AD36A43F00103A8
:10067C00D36208BD3C0000200048E8010008024499
:10068C00014B0360002070479445000838B50546BF
:10069C000C4699B1D1E901230F48096802F01AFE02
:1006AC00D4E90423E1680D4802F014FEE1690C481A
:1006BC0002F010FEA1690B4802F00CFE012D05D1D1
:1006CC00EFF305810848103902F004FE2146284654
:1006DC00BDE8384001F04EBDA7470008D7470008D9
:1006EC0007480008174800084648000830BFFFF7C5
:1006FC00FDBF00BF2DE9F04105460B4EDFF82C8005
:10070C00324606EB0807CC1B2046094903F050FB88
:10071C00A01942460021083C03F057FB2C6707F157
:10072C000800BDE8F08100BF0000000004000000DC
:10073C0094450008054B5A699B689A421FBF044AAE
:10074C00536843F080535360704700BFA4030020EC
:10075C0000ED00E010B5204C204802F0BBFDA36A70
:10076C00990137D51E4802F0B5FD1E20A36ADA01A7
:10077C0003D51C4802F0AEFD1F20174CA36ADB0208
:10078C0003D5194802F0A6FD0220A36A1C0303D569
:10079C00164802F09FFD21200F4CA36A590303D584
:1007AC00134802F097FD2220A36A9A0303D511483F
:1007BC0002F090FD2320084CA36ADB0303D50E48FE
:1007CC0002F088FD2420A36A6FEA03436FEA134307
:1007DC00A36210BD1D20C9E700ED00E05A480008D7
:1007EC007348000887480008A2480008CD48000854
:1007FC00EC480008124900082D49000870B5244C3B
:10080C00064624480D4602F065FDA36AD90435D589
:10081C00214802F05FFD1720A36A1A0503D51F4873
:10082C0002F058FD18201A4CA36A9B050FD51C48E2
:10083C0002F050FDA16BA36A180407D5194802F009
:10084C0049FD1EB1A36A23F40043A3621920104C86
:10085C00A36A590503D5144802F03CFD1A20A36A7B
:10086C00DA050DD5114802F035FD1B20084A936AB4
:10087C0043F47F43936200232B7070BD1620CBE7AB
:10088C00A36A9B04F2D50A4802F024FD1C20EDE774
:10089C0000ED00E059490008704900088249000841
:1008AC0096490008B0490008C6490008E24900080A
:1008BC00FB49000870B5264C064626480D4602F04A
:1008CC0009FDA36AD80640D5234802F003FD112088
:1008DC00A36A190703D5214802F0FCFC12201C4C1A
:1008EC00A36A9A070FD51E4802F0F4FC616BA36A49
:1008FC001B0607D51B4802F0EDFC1EB1A36A23F0C2
:10090C008003A3621320124CA36ADE0703D516489A
:10091C0002F0E0FC1420A36A9C0603D5134802F0F5
:10092C00D9FC15200A4B9A6AD10658BF9A6A9A6A62
:10093C00920642BF5A6A22F400525A629A6A42F0F4
:10094C00FF029A6200232B7070BD1020C0E700BF1D
:10095C0000ED00E02B4A0008424A000882490008DA
:10096C00764A00088F4A0008A64A0008FB4900088E
:10097C002DE9F0415B4B04465F6800258AB0C7F354
:10098C00080685F31188BFF36F8F02F07F43B3F134
:10099C007F4F06D102F00C03082B13D1524802F002
:1009AC0099FC00252C464FF00008F31E8DF80780AB
:1009BC00092B00F28580DFE803F00A797D758383CB
:1009CC008383838110074CBF0C460125EBE7474816
:1009DC00444E02F07FFC8DF80780F36A9A0704D529
:1009EC00434802F077FC00232FE0F36A002B01DA76
:1009FC004048F6E7F36A5B00F5D53F4802F06AFC25
:100A0C007369A26943F480737361BFF34F8FBFF3B3
:100A1C006F8F736932F8022C23F480737361BFF308
:100A2C004F8FBFF36F8F4DF602739A4208D0B36AA3
:100A3C00DBB24BB301200DF10701FFF73BFF33E0B5
:100A4C0021682E4802F046FC23689DF80720C2B9A5
:100A5C0002AE04F12007324620686168083403C2F4
:100A6C00BC421646F7D1099AB5B3C2F3080121B9B5
:100A7C006FEA52226FEA42220992184602A9FFF746
:100A8C0005FE0AB0BDE8F081B36A13F47F4F05D0C0
:100A9C0001200DF10701FFF7B1FE05E0B36AB3F5D4
:100AAC00803FA0D3FFF756FE0346CEE700200DF1A2
:100ABC000701C2E700200DF10701ECE7104890E7B1
:100ACC00104B17F4F87F1049104818BF1946A6F1BF
:100ADC00100202F0FFFB86E722F4FF7222F0010203
:100AEC00CAE700BF00ED00E0F44A0008204B000804
:100AFC00384B00085A4B0008694B0008894B00081A
:100B0C00A64B0008DB4A0008C64A0008CB4B00087D
:100B1C00064B5A6942F010025A615A6942F48062DB
:100B2C005A615A6922F008025A61704700ED00E0E0
:100B3C00EFF30880EFF3098101B57246FFF718FF58
:100B4C0001BD00BF0A4880F30888102080F311888B
:100B5C0008484FF40061401880F30988EFF31480C3
:100B6C000221084380F31488BFF36F8F00F08EF8D6
:100B7C0018110020D8030020084B9B6883420BD12E
:100B8C00EFF3058343B1064B5A6842F080525A602A
:100B9C005A6A22F400425A6201F05ABEA4030020A1
:100BAC0000ED00E014498A684FF030001044EFF378
:100BBC00098C80E8F01F102080F31288BFF36F8F30
:100BCC000E4F4FF000664A698A603E60106F0C4C05
:100BDC002060506F0023536780F3118802F13000BE
:100BEC0090E8F01F8CF3098802F1000004B502F0C4
:100BFC008EFBBDE804407047A403002004ED00E028
:100C0C00400200201EF0040F0CBFEFF30880EFF33E
:100C1C000980816911F8021C0229FFD001B57246C6
:100C2C0002F066FB01BD00BF00B2002807DB012308
:100C3C004109034A00F01F00834042F821307047FD
:100C4C0000E100E000B2002801F10101ACBF00F1AD
:100C5C006040064B4FEA0111C9B2ABBF00F56140D1
:100C6C0000F00F0080F800131954704714ED00E0E9
:100C7C00044B054A23F07F039360BFF34F8FBFF300
:100C8C006F8F70470000000800ED00E008B5FFF71B
:100C9C00EFFF0B4AD2F8883023F47003C2F8883087
:100CAC00EFF3148323F0040383F31488BFF36F8FE3
:100CBC0001F0F0FA01F0F2FE00F046F801F02AFB28
:100CCC0000ED00E042F8203C009B0B4942F81C3C34
:100CDC00019B21F0010142F8183C029B42F8081CD0
:100CEC0042F8143C4FF0807342F8043C0023203A45
:100CFC0002654367704700BF8D05000800B50D4BBA
:100D0C0015469860026F0C4B0E461A60036E83F307
:100D1C000B882C4686F309880020044B9847204604
:100D2C00002100220023024C204700002933000838
:100D3C008D050008A4030020400200201022014B66
:100D4C001A61704700ED00E0002310210348C2181F
:100D5C000133832B82F80013F9D1704700E100E0D6
:100D6C0008B5EFF30583064A103B02EBC30152F8BA
:100D7C00330049688847BDE80840FFF7DBBC00BF7B
:100D8C00184100081FB5094C094A2346012109489E
:100D9C0000F0FAF800230393074B0121E41A01A891
:100DAC000193029400F0FAF804B010BD0000042086
:100DBC0000000020944500088800002010B50C7A33
:100DCC000B6804F01F0223F01F031A43CB6864095D
:100DDC0023F01F03054943EA440343F00103C1F820
:100DEC009800C1F89C20C1F8A03010BD00ED00E0C7
:100DFC0010B5074BD3F89030C3F30723013B98424F
:100E0C0002D8FFF7DBFF10BD6FF01500FBE700BF4A
:100E1C0000ED00E02DE9F04F0F46144606464FF06A
:100E2C0000084D4D85B0B84580F29280D6F80490FC
:100E3C00B9F1000F36D0B9F11F0F40F2878019F0CD
:100E4C001F0F40F08380D6F800A01AF01F0F7DD141
:100E5C00504602F077FA834609EB0A00013802F09B
:100E6C0071FA834572D11BF1160F6FD05C456DDDA5
:100E7C00C5F898B0D5F89C10C5F898B0D5F8A03046
:100E8C0021F01F0143F01F0AD6E900321A4499429F
:100E9C0002F1FF391ED1CA4508D131465FFA8BF0F9
:100EAC0002F059FA08F101080C36BCE73146C5F8D6
:100EBC0098B0D5F89C3022F01F0203F01F031343A7
:100ECC00C5F89C30E0B202F046FA10F1160F3DD096
:100EDC00441CE7E7C5F898B0D5F8A020013B23F0F7
:100EEC001F0302F01F021343CA453146E0B2C5F896
:100EFC00A030E8D002F02FFA10F1160F26D0C5F86A
:100F0C0098B0D5F89C209DF808300AF1FF3A62F3AE
:100F1C0004038DF80830D5F8A0309DF808205B0844
:100F2C0063F347128DF80820D6E90032134400937E
:100F3C0023F01F035344A3EB0903013023F01F03D9
:100F4C006946C0B20393FFF753FFBEE76FF0150479
:100F5C00204605B0BDE8F08F00ED00E00522044B03
:100F6C00C3F89420BFF34F8FBFF36F8F704700BF50
:100F7C0000ED00E0BFF35F8F0022024BC3F894201A
:100F8C00704700BF00ED00E010B5034C2278FFF76E
:100F9C0041FF207010BD00BFD00300202DE9F74F9A
:100FAC00294D8A4606464FF00008AB46274FD045E0
:100FBC001BDAD6F80490B9F1000F3FD0316808461F
:100FCC00019102F0BFF90199044609EB01000138C7
:100FDC0002F0B8F984424FF014021D4B08D002FB0A
:100FEC0008F36FF015024BF8032003B0BDE8F08F47
:100FFC0014F1160F2C60F8D01978A142F5DD02FB24
:10100C0008B0C7F89840C7F89840D7F89C4000F152
:10101C000801007B64F304000871D7F8A0000C7978
:10102C00400860F347140C71D7F89C1021F01F0195
:10103C006960D7F8A01021F01F01296108F101089F
:10104C0014350C36B3E700BF4402002000ED00E07D
:10105C00D0030020F0B54149414CD1F890302568BF
:10106C00C3F307239D4287B075D80020FFF782FF9A
:10107C003C4BC1F8C030854216D13B4C01A82570C1
:10108C00FFF7FEFA00250646384FAE4213D100207A
:10109C0023783249D1F89020C2F30722934254DBD3
:1010AC00FFF75CFF00202FE0616801EB0011FFF7F8
:1010BC0085FE0130DFE70199280101EB0513DA68A1
:1010CC003A40B2F5001F21D0B2F5800F2BD0B2F50B
:1010DC00801F38D15A689B680958013B22F01F00C9
:1010EC0003440120844623F01F0340EA4C10CDE951
:1010FC0002218DF8100002A920780593FFF778FEE5
:10110C0000281DDA6FF0150007B0F0BD5A689B6817
:10111C000958013B22F01F0003444FF0020C012040
:10112C0023F01F03E1E75A689B680958013B22F042
:10113C001F0003444FF0000C062023F01F03D4E7DC
:10114C0023780133237001359FE7C1F89830C1F83B
:10115C00A00001339EE74FF0FF30D5E700ED00E033
:10116C00A0450008AAFF4400D00300200000F0FFB7
:10117C0008B5024B1B689847002008BD5802002098
:10118C00034B044A1860937843F002039370704742
:10119C00580200200C00002008B50649064821F032
:1011AC000701C1F1005202F5802202F054F8002030
:1011BC0008BD00BF1F1100205C0200202DE9F74381
:1011CC0005460C461A4EDFF86C801B4F14B903B061
:1011DC00BDE8F083EFF31189102383F31288BFF37A
:1011EC006F8F00F013FF1549D1E90032C31842F19B
:1011FC00000008FB03F206FB0022A3FB0630DB1900
:10120C0042EB0002C1E9003289F31188BFF36F8F02
:10121C00042CA14628BF4FF004092846019201A9CD
:10122C004A4602F0C5FD4D44A4EB0904CEE700BFCD
:10123C00FDB0B087E62EBB272DF304B500000020CF
:10124C002DE9F84306464FF000094FF00108104F06
:10125C00347854FA89F5284600F0CAF870B128465B
:10126C0000F0E8F857F8353043B14C4407EBC505AE
:10127C0004F01F04696808FA04F09847727809F1C1
:10128C0001095FFA89F39A42E2D2BDE8F88300BF04
:10129C0068020020014B23F8101070474C0000200E
:1012AC00034678B1B0FA80F2C2F11F02D2B20649FD
:1012BC0031F91200054AD2F880100B43C2F8803085
:1012CC00FFF7B2BCFF22F2E74C00002000200244E2
:1012DC00034AD2F8803023EA0003C2F8803070470A
:1012EC0000200244032921D8DFE801F0020C101978
:1012FC000F4B1A6822EA00021A605A6822EA0002AE
:10130C005A6070470A4B1A680243F5E7084B5A6853
:10131C0002435A601A6822EA00021A607047044BB2
:10132C001A6802431A605A6810435860704700BF2D
:10133C000020024430B5B0B1B0FA80F3C3F11F0302
:10134C00DBB20B4850F833408C4204D100EBC305A0
:10135C006D68954205D044B940F8331000EBC300DA
:10136C004260002030BDFF23EBE76FF00F00F9E780
:10137C006802002060B1B0FA80F3C3F11F03DBB246
:10138C000021044A42F8331002EBC302516070474B
:10139C00FF23F5E768020020C300074AC0F3810071
:1013AC00183052F8202003F018000F23834013400C
:1013BC0023FA00F0704700BF0020024413B50B4C19
:1013CC00204602F00CFC58B10223A822CDE90023E0
:1013DC00A3681B683BB169462046984702B010BD14
:1013EC006FF01200FAE76FF05700F7E7583F00086C
:1013FC003F28024619D800F01F0301201F2A00FACB
:10140C0003F30B4A08D8D16833EA01010ED01269F4
:10141C00934318BF00207047D16A33EA010105D00D
:10142C00126B934308BF0120F3E70020704700BF05
:10143C0000200244012300F01F023F2803FA02F3AC
:10144C0009D81F28054A03D8D360136100207047C0
:10145C00D3621363FAE76FF0150070470020024463
:10146C00074B1A6822F004021A605A68D207FCD49F
:10147C000222DA601A6842F001021A60704700BF5B
:10148C000004034010B52F4B18680B88C3F30B03F3
:10149C000E2B2FD813B96FF0850028E0013B0D2BD4
:1014AC00F9D801A454F823F0FD1400082D150008F8
:1014BC0033150008ED140008A3140008A314000849
:1014CC0039150008EF14000829150008EF1400085E
:1014DC0029150008FD1400083D150008FD1400082E
:1014EC00194810600B68B3F5805F23D2002010BD43
:1014FC001648F6E7882BF4D003F67473C3F30B038A
:10150C001C2BC8D8012404FA03F303F0013424F48F
:10151C008034002CE5D10E4C2342BCD04008E0E7CF
:10152C004FF40040DDE74FF4FA40DAE70948D8E71A
:10153C000948D6E7C3F313330133B0FBF3F0106063
:10154C00D4E700BF3C00002000127A00001C4E0EB5
:10155C0000001110006CDC020068890910B56A4C9F
:10156C00E369236A694B1A6942F030021A615A69BD
:10157C001007FCD5664800F05DFD236843F480231A
:10158C002360236843F4803323605F4C2368990302
:10159C00FCD5FFF719F8D4F8F03023F0180343F01A
:1015AC001003C4F8F030D4F8F03043F00103C4F861
:1015BC00F030554CD4F8F0309A07FBD5FFF722F8F1
:1015CC00D4F8F03043F08063C4F8F030D4F8F03045
:1015DC001B01FBD5236843F4805323604A4B1A68E4
:1015EC009404FCD5DA6902F01802182A17D11A688B
:1015FC00900707D41A6842F001021A60424A136835
:10160C009907FCD5404BDA6922F00302DA61DA69FA
:10161C0012F0180FFBD11A6A22F00F021A623A4B21
:10162C001A6822F080721A609A6A42F003029A6277
:10163C009A6A22F47C5242F400729A629A6A22F0FC
:10164C000C0242F004029A629A6A22F020029A6218
:10165C005A6B22F4FF7222F0010242F077025A63B5
:10166C009A6A22F010029A625A6B22F47E4242F479
:10167C0000725A639A6A42F480329A625A6B22F46C
:10168C00FE0242F400325A639A6A42F400329A62C1
:10169C005A6B22F0FE4242F080725A639A6A42F40C
:1016AC0080229A621A6842F080721A601A6892015B
:1016BC00FCD5DA6A22F00302DA621A6B22F003021A
:1016CC001A631A6A22F00F021A621A6A22F0700266
:1016DC0042F040021A621A6A22F4E0621A621A6A32
:1016EC0022F4E04242F480421A62DA6942F00302C8
:1016FC00DA61054AD36903F01803182BFAD1054BAC
:10170C00034A00201A6010BD000C02440008024479
:10171C00001C4E0E3C00002008B5074802F05FFA92
:10172C0038B10648FFF72CFD0448FEF70BFF0020EC
:10173C0008BD6FF01200FBE7F84000084D170008D9
:10174C000A2838B50446074D04D1AB680D2128464C
:10175C005B689847AB6803485B68E1B298472046E2
:10176C0038BD00BFF84000082DE9F843D0F80480DC
:10177C001746D0F81090D8F808000D461E4601F018
:10178C009BFEB7F5001F044616D12846D8F8084032
:10179C00FFF702FE84420CD1294601F08DFE04466F
:1017AC00FFF796FD2046FFF7E5FD00212046FFF7E9
:1017BC0099FD0020BDE8F883B7F5800F20D0B6F175
:1017CC00806F19D0B6F1C06F18D0B6F1007F1AD166
:1017DC0002264A4620460F49FFF7ACFDB0B9284611
:1017EC00D8F8081001F06DFE20463146FFF77AFD5F
:1017FC002046FFF755FDDCE70126EAE70326E8E77C
:10180C006FF08500D6E76FF01500D3E76FF00F008F
:10181C00D0E700BF4F38000838B50369044658605C
:10182C000A4D284602F0DBF960B1AB6861681B68B1
:10183C000C3123B12846984700EAE07038BD6FF0B0
:10184C005700F9E76FF01200F8E700BF583F0008A7
:10185C002DE9F047044600251D4F00EBC106B442AC
:10186C0001D1002014E02068C30600F01F0911D438
:10187C00656845F02005C0F3481AC0F344201028D1
:10188C0023D857F82080B8F1000F0DD16FF012005B
:10189C00BDE8F087B9F1100F04D0B9F1110FEAD1FE
:1018AC006568E8E73025E6E7404602F098F900283D
:1018BC00ECD04B462A4640460AF00F0101F0D7FF08
:1018CC00002804F10804CADAE2E76FF01500DFE73C
:1018DC007C4600080129034608461AD002290BD081
:1018EC00C9B91B680D4A934217D002F180529B1A5A
:1018FC0018BF0123180370471868084B98420AD088
:10190C0003F18053984214BF4FF440504FF40050F1
:10191C007047002070474FF400507047002400447B
:10192C0070B500261D46094B6C0833F8122033465F
:10193C00FEF786FC090241EA1061000220182A46D3
:10194C00334641F10001FEF77BFC70BD7447000883
:10195C002DE9F3410269436810680C461D68D9688B
:10196C008368DB68DBB101AA9847002817DB244B9E
:10197C009D4203D003F180539D4233D10026019F39
:10198C00DFF88080234638460021B2B2FFF7C8FF4B
:10199C00A0F54070404505D90136102EF2D102B0A9
:1019AC00BDE8F081EB6A23F00F033343EB62002CAC
:1019BC00F5D0154B384633F8162000231946FEF7A0
:1019CC003FFC090241EA106163080002C01822467C
:1019DC004FF0000341F10001FEF732FCC0F313009D
:1019EC00E860DCE72B6823F400432B60019B002CA0
:1019FC00D5D003EB5403B3FBF4F39BB2EB60CEE70F
:101A0C0000240044FFFC0F00744700082DE9F84344
:101A1C0007460D7940683B69012D0E460468D3F8E2
:101A2C00048000F0A380AB1ED3F1000949EB03093D
:101A3C004FEA89297179FFF74DFFB2790346022AE3
:101A4C0000F09780042A00F09880002D00F0A08010
:101A5C00033D012D40F294804FF48050B3F5805F2C
:101A6C0000F09880B3F5405F00F09680002B0CBF1F
:101A7C0001230323994240F08380494601F057FF2C
:101A8C0082427DD1F379002B5DD0012B40F0868012
:101A9C00444B9C4257D003F180539C4253D0424B51
:101AAC009C4250D003F180539C424CD03F4B9C4203
:101ABC0049D003F180539C4245D03D4B9C4242D0CF
:101ACC0003F180539C423ED03A4B9C423BD0B4F144
:101ADC00502F38D003F5A0539C4234D003F18053DF
:101AEC009C4230D0344B9C422DD003F180539C420D
:101AFC0029D0324B9C4226D003F180539C4222D0F9
:101B0C002F4B9C421FD003F180539C421BD02D4B7A
:101B1C009C4218D003F180539C4214D02A4B9C4217
:101B2C0011D003F180539C420DD0284B9C420AD01B
:101B3C0003F180539C4206D0254B9C4203D003F109
:101B4C0080539C421CD12368314623F00103384654
:101B5C00236001F0A2FF236843F00103236096E8A1
:101B6C00030088E803000020BDE8F8834FF4C06947
:101B7C0060E745B94FF0805070E7002D3FF46CAF33
:101B8C006FF08500F0E7033D012DF9D9002065E7E2
:101B9C00284663E700236DE702236BE7032B3FF432
:101BAC0077AFEDE7003801400044004000480040AA
:101BBC00004C00400050004000780040007C004089
:101BCC000080004000680040006C00400084004031
:101BDC0000240044F7B50646446805697748286038
:101BEC0001F0FDFF002800F0DE802868E1688368C2
:101BFC001B68002B00F0DB8098470028C0F2D580D2
:101C0C000021206A01AA01F047FE0028C0F2CD8015
:101C1C00019B002219791868FFF71AFE0028C0F200
:101C2C00C480756833692C685F68236823F00103EE
:101C3C002360686801F0D3FF002800F0B480D5E978
:101C4C0001018368DB6803B1984754E8003F43F017
:101C5C000C0344E80032002AF7D13946304601F033
:101C6C001CFF2B7D1BB1A36843F00803A3606B7DA5
:101C7C001BB1636843F400436360AB7D1BB16368C5
:101C8C0043F480336360EB7D1BB1636843F4003332
:101C9C0063602B7E002B74D0494B9C4257D003F1D0
:101CAC0080539C4253D0474B9C4250D003F18053FD
:101CBC009C424CD0444B9C4249D003F180539C42F3
:101CCC0045D0424B9C4242D003F180539C423ED0C3
:101CDC003F4B9C423BD0B4F1502F38D003F5A0536E
:101CEC009C4234D003F180539C4230D0394B9C42FF
:101CFC002DD003F180539C4229D0374B9C4226D0E7
:101D0C0003F180539C4222D0344B9C421FD003F1F0
:101D1C0080539C421BD0324B9C4218D003F1805311
:101D2C009C4214D02F4B9C4211D003F180539C4207
:101D3C000DD02D4B9C420AD003F180539C4206D00F
:101D4C002A4B9C4203D003F180539C4232D17368DE
:101D5C001A68936843F48043936023686A7E23F087
:101D6C00787343EA425323602368AA7E23F4F81362
:101D7C0043EA02432360EB7E1BB1A36843F40043A8
:101D8C00A3602B7F1BB1236843F0005323602368AF
:101D9C0043F001032360E3699A02FCD5E3695B021B
:101DAC00FCD5002001E06FF0120003B0F0BD6FF025
:101DBC005700FAE76FF01500F7E700BF583F00082F
:101DCC00003801400044004000480040004C0040F6
:101DDC000050004000780040007C00400080004033
:101DEC0000680040006C0040008400400024004467
:101DFC004FF0E02310B50F499C691A6908689B697C
:101E0C000D4902F4803234B993B903464AB90A68D1
:101E1C001044C01A10BD002B08BF03460AB9A342D8
:101E2C00F5D90A6802440A604FF0E0221269EEE725
:101E3C000446F3E7A00300209C03002010220A4B69
:101E4C00002083F8232045F6C052084B1A60084B3B
:101E5C0045F6BF5218604FF0E0235A6198611A6939
:101E6C0042F007021A61704700ED00E0A003002069
:101E7C009C030020684620F007018D4619B5FFF73A
:101E8C00B7FF1149114B0868D3E90042001942F120
:101E9C000002C3E9000200230B6045F6C0530C4A54
:101EAC00D2E90041001BB0FBF3F043431B1941F195
:101EBC000001C2E9003100F0CBFEFEF73BFCBDE8AF
:101ECC0019408546704700BF9C03002090000020FD
:101EDC00880000202DE9F041DFF8E08099B1421C28
:101EEC000BD14FF0E022136923F0010313614FF083
:101EFC007F43C8F80030BDE8F081D8F800600128B5
:101F0C0007DC00270BE0431CD8F80060F7D140F247
:101F1C00BA2040F2BB239842A8BF1846471EEFF3E5
:101F2C001185102383F31288BFF36F8FFFF760FFC7
:101F3C004FF0E023224C9969D4E9002380184FF02C
:101F4C00000243F10003C4E900031E4B1A601E4B50
:101F5C001A68831A2ED445F6C05C0CFB073303F5C4
:101F6C00BB433F33B3FBFCF7131A40F2DC520CFBC0
:101F7C000733934238BF1346144A934228BF134683
:101F8C004FF0E022C8F80030013B90695361002308
:101F9C0081429361A1EB000338BF9B19D4E9001275
:101FAC005B1842F10002C4E9003285F31188BFF3DB
:101FBC006F8FA0E740F2DC53E2E700BFA0030020E4
:101FCC00900000209C03002088000020809DFF00D2
:101FDC0038B5EFF31185102383F31288BFF36F8F9D
:101FEC00084B1C68084B1B68E41AFFF701FF85F3CC
:101FFC001188BFF36F8F45F6C0532044B0FBF3F04C
:10200C0038BD00BF900000208800002038B5EFF3E9
:10201C001185102383F31288BFF36F8F044B1C6858
:10202C00FFF7E6FE85F31188BFF36F8F204438BDB0
:10203C0090000020B8B1384B1A6902F03002302AF7
:10204C0013D1364B98425ED9354B98425DD9354BFE
:10205C0098425CD9344B98425BD9344B98422ED978
:10206C00334B98423BD9012070471A6902F0300279
:10207C00202A10D12F4B984245D92F4B984244D946
:10208C002E4B984243D92E4B984242D92D4B984215
:10209C0015D92D4BE5E71B6903F03003102B10D13C
:1020AC002A4B98422FD92A4B98422ED9294B984229
:1020BC002DD9294B98422CD9284B9842D3D804209F
:1020CC000EE0274B98421ED9264B98421DD9204B27
:1020DC0098421CD9244B98421BD9244BEDE7052080
:1020EC00234A136823F00F0303431360136803F0B0
:1020FC000F0398420EBF0346136803F00F03C01A78
:10210C0018BF012070470020EAE70120E8E7022011
:10211C00E6E70320E4E700BF0008024480DE80020B
:10212C0000BD0105809B8207007A030A8058840C4D
:10213C0080B2E60E80CC060200990D048065140670
:10214C0000321B0880FE210A00C2EB0B80C3C901C0
:10215C0000879303804A5D05000E270780D1F008A5
:10216C00002D3101005A620200B4C40400E1F505EF
:10217C000020024038B5EFF31185102383F3128849
:10218C00BFF36F8F064B9C6801F03CFD85F3118803
:10219C00BFF36F8F2046BDE83840FEF7EDBC00BFA3
:1021AC00A403002038B50A4B53F82040013053F8F3
:1021BC002050A54200D838BD606830B1037FDB07E2
:1021CC0001D401F022FD0834F3E723689847FAE7BD
:1021DC005C470008012270B5294B032086B01A70A9
:1021EC00FFF7E0FF00F0AAFD0420FFF7DBFF254C12
:1021FC00254D2646AE4204F1300410D300F02EFAE1
:10220C00204C224EAC4226D300F03CFAFEF780F96B
:10221C001F4A137B23F00103137306B070BD54F8EF
:10222C000C3C059354F8103C049354F8143C039361
:10223C0054F8183C029354F81C3C019354F8203C7D
:10224C00009354E90A2354E90C0100F0CBF854F83C
:10225C00303C5E65CDE7D4E90A23B3F1FF3F08BFFC
:10226C00B2F1FF3F05D052EA0301206803D100F020
:10227C00C5FA3034C6E73146183000F059FCF8E79F
:10228C00D10300203045000830450008DF3C000831
:10229C001801002008B50348034A0021121A01F066
:1022AC00CBFC08BD88000020D403002000230122B1
:1022BC0070B586B0CDE904230F220193CDE902322B
:1022CC0014234FF4A0720E4D0E4E03FB00550E4915
:1022DC0006EBC016044602FB00110C4B3046009571
:1022EC0000F080F8737B2C7423F004037373084B99
:1022FC00013403EBC423EE606B6006B070BD00BF0D
:10230C00A403002098000020D80B00204D3C0008AE
:10231C00D8030020BFB50020FFF744FF294B03F57D
:10232C00006282F3088883F30A880024F023264D88
:10233C00264F85F82230EC772C766C76AC7685F8C7
:10234C0020406B6A43F4E0236B62FEF7E1FBFEF77F
:10235C00F5FC4FF0FF33AB62EB62FEF77BFEFEF752
:10236C0011FD1B4800F07CF801F038FCFEF776F903
:10237C000120FFF717FF0220164DFFF713FF00F0A7
:10238C00B5F9154B15495D61154B4FF480620593FA
:10239C0001232846CDE90343CDE901443B46009493
:1023AC0000F020F806466A7B284622F004026A7385
:1023BC0001F063FC2046FFF779FF3A463146284688
:1023CC00FEF79CFCD803002000ED00E0E1210008A2
:1023DC009801002018010020A4030020180D0020F3
:1023EC00E84C00082DE9F043984685B000F15803FD
:1023FC00C0E91633109B002603730423073222F026
:10240C00070543730F9B01EB05090F468373494680
:10241C00C0E906668660C6730446FEF76BF90E9B30
:10242C00073020F00700A066C4E9187502930D9BD5
:10243C00A9EB000901930C9B4A460093394643468D
:10244C002046FEF73FFC054B66659B6803B1DB6ECF
:10245C004846E36605B0BDE8F08300BFA403002046
:10246C0040F2011383810023C0E91833C366014B8A
:10247C0098607047A40300206FF00A01084A936823
:10248C009967084958674B6843F080534B600023A9
:10249C0083F31188BFF36F8F9368986F704700BFF9
:1024AC00A403002000ED00E070B590F90D20437BF3
:1024BC00002A36DBD90634D11B4C63F07F0322464D
:1024CC00437352F8183FE169934207D1C0E90021E8
:1024DC000860E06111E09942F8D01B68002BF5D040
:1024EC0090F90E5093F90E60B542F4D0AE42F2DD85
:1024FC005968C0E9003108605860A569954200D060
:10250C0005B9E568A3685A7BD20604D1DA897F2A1B
:10251C0001D9AA6932B1AB4202D0284600F066FA62
:10252C00656170BD6361FCE7A403002038B590F9C8
:10253C000D200146002A437B04DA03F07F0343732A
:10254C0001F089FB0D4D2A4652F8184FAB689442A6
:10255C0000D004B9EC688B4207D05A7BD20604D168
:10256C00DA897F2A01D9A2692AB1A34202D0204676
:10257C0000F03CFA23466B6138BD00BFA403002079
:10258C0070B590F90D200146002A437B04DA03F064
:10259C007F03437301F05FFB1C4C4B7B224663F0C3
:1025AC007F034B7352F8183FE069934207D1C1E99E
:1025BC0000200160E16111E09842F8D01B68002B0B
:1025CC00F5D091F90E5093F90E60B542F4D0AE42AD
:1025DC00F2DD5868C1E9003001605960A569A36853
:1025EC00954200D005B9E5688B4207D05A7BD206DC
:1025FC0004D1DA897F2A01D9AA692AB1AB4202D067
:10260C00284600F0F3F92B46636170BDA40300204B
:10261C0049B9EFF3058030B9054B5A699B689A426A
:10262C0001D0FFF729BF81F31188BFF36F8F70477B
:10263C00A4030020034648B9EFF3058232B9064AD9
:10264C0051699268914201D0FFF716BF83F311884C
:10265C00BFF36F8F704700BFA4030020EFF311810D
:10266C00102383F31288BFF36F8F054B9A68D37BCB
:10267C00013BD37381F31188BFF36F8F704700BF99
:10268C00A403002070B5EFF31186102383F3128896
:10269C00BFF36F8F144DAB68DA7B0132DA732A46C5
:1026AC0052F8184F944200D004B9EC685A7BD20609
:1026BC0004D1DA897F2A01D9A2692AB1A34202D0B6
:1026CC00204600F093F923466B6186F31188BFF323
:1026DC006F8FEFF31180102383F31288BFF36F8F8A
:1026EC00BDE87040FFF7A6BFA4030020024B03F126
:1026FC001802C3E906227047A403002070B5EFF35B
:10270C001186102383F31288BFF36F8F1B4CA168C3
:10271C00E0690B68814214BF1A46002249680B60BD
:10272C005960A368E1692AB9154AC3E900210B6015
:10273C00E3610CE093F90E0092F90E50A84218D008
:10274C00854216DD5168C3E900210B605360A56911
:10275C000B4B9D4200D005B9E568A3689D4202D0A1
:10276C00284600F043F965613046BDE87040FFF73C
:10277C0083BE8A42D8D01268D5E700BFA4030020DC
:10278C00BC030020F8B550EA010306460C4603D101
:10279C00FFF7B4FF0020F8BDEFF31187102383F38C
:1027AC001288BFF36F8F124D124BA8681860FFF799
:1027BC00BDFEA868234632460F49183000F0B8F920
:1027CC00AA680446537B384643F004035373FFF75F
:1027DC0053FEAB68D3E90A23B3F1004F08BF002ABC
:1027EC00D8D101F0E1FA201A20EAE070D3E700BF5B
:1027FC00A4030020C4030020DF3C000838B50446C5
:10280C00EFF31185102383F31288BFF36F8F437B93
:10281C005B070FD5183001F09FFA637B204623F03D
:10282C0004036373FFF740FE2946BDE838400448B3
:10283C00FFF7EEBE85F31188BFF36F8F38BD00BF75
:10284C00D2030020014B9868704700BFA4030020FE
:10285C002DE9F8430446077BEFF31185102383F32E
:10286C001288BFF36F8F437B190705D585F3118849
:10287C00BFF36F8FBDE8F883D90943F008025DD12F
:10288C004273A36813B1204601F0EDF904F118006E
:10289C0001F062FAA66D04F15808B04511D04FF062
:1028AC00000976B1304601F0DEF906F1180001F0AE
:1028BC0053FA3046C6F87890FFF7F6FDA66DB04592
:1028CC00EFD1DFF8C080D8F808309C423ED1EFF34E
:1028DC000589B9F1000918BF4FF00109D8F8186043
:1028EC00294A964200D00EB9D8F80C60B34202D0F7
:1028FC00304600F07BF82046C8F8146000F00BFD61
:10290C00B9F1000F02D02148FFF7AAFDD8F8083022
:10291C009C4231D1EFF3058373BB227BD20718D4D1
:10292C002846FFF7A9FDFB07A4D5002383F31188E4
:10293C00BFF36F8F0423184602DF9BE703F07F037E
:10294C0043F00803437301F086F99AE74FF000094E
:10295C00C4E785F31188BFF36F8F83F31188BFF33E
:10296C006F8F0423184602DFEFF31180102383F3DB
:10297C001288BFF36F8FD4E785F31188BFF36F8F85
:10298C00D1E700BFA4030020BC0300209801002065
:10299C000122044BC01A044BC0105843034B1A5469
:1029AC00704700BF18020020ABAAAAAAD2030020CD
:1029BC00C3897F2B12D80A4B1B6863B1094B90F962
:1029CC000E201B689A4209DB437BDB0606D1064BC3
:1029DC00C31A18BF012303F0010070470023FAE764
:1029EC0040000020C80300209800002070B50E4B5A
:1029FC000E4C1E7C054606EB460304EBC304204636
:102A0C0001F0AAF900220A4B28469A55FFF7D0FF8D
:102A1C0048B1084B2046BDE870401A680649013A97
:102A2C00D31700F085B870BDA40300201802002055
:102A3C00D2030020400000209D29000838B5EFF398
:102A4C001185102383F31288BFF36F8F104B114A3B
:102A5C009C681068A04206D1FFF7C8FF85F3118867
:102A6C00BFF36F8F38BD00211B7C11600A4AD35C09
:102A7C00002BF3D02046FFF79BFF0028EED0637BA2
:102A8C00DB0602D12046FFF77BFD2046E4E700BFC2
:102A9C00A4030020C4030020D2030020074808B57B
:102AAC00074A0849121A01F0C9F8BDE8084006485F
:102ABC00064A0749121A01F0C1B800BF00000020F5
:102ACC0088000020384D0008000000200000002085
:102ADC00384D0008024B1868984208BF0020704718
:102AEC0044000020034B1B680BB9FFF771BA0020A0
:102AFC00704700BFCC03002030B570B10B4B5B6846
:102B0C0098420AD0036843B1D3E90421D0E90445C3
:102B1C00121941EB0501C3E90421D0E9003213601D
:102B2C005A600023C0E9003330BD00BF44000020D0
:102B3C00B3F1FF3F08BFB2F1FF3F2DE9F84F044658
:102B4C00994615461F467AD08160EFF31188102301
:102B5C0083F31288BFF36F8FB9F1000FDFF8E4A095
:102B6C0020DBFFF7BFFFDAE90027013549F1000947
:102B7C002D1849EBE07306464FF00109C4E90453E4
:102B8C00AD1843EB0707FFF7A5FF0346DFF8B8E0E6
:102B9C00DEF804A0EBB9C4E900EACAF80040CEF8AC
:102BAC00044028E06FF00103DAE900125B1A4FF0E1
:102BBC00FF3161EB02025B1B62EB0902012B72F12C
:102BCC000001BCBF012300224FF00009C0E9043210
:102BDC00D9E7D3E9041CD4E904208A4270EB0C0B2E
:102BEC0024DA891A5A686CEB0000C3E90410C4E9B2
:102BFC00003214605C60FFF76DFF84420ED1134B02
:102C0C001B685BB9B9F1000F02D1FFF76BFF0646E9
:102C1C00304601F08AF80021FFF75CF988F311883F
:102C2C00BFF36F8F28463946BDE8F88F521A60EB18
:102C3C000C009A45C4E90420ADD01B68AAE7002516
:102C4C002F46EFE73002002044000020CC03002088
:102C5C002DE9F047EFF31185102383F31288BFF3AE
:102C6C006F8FDFF8A0900026C9F800000027FFF74F
:102C7C0031FFDFF89480D9F80030D8E900ECD9178F
:102C8C0050B1D0E90442A34271EB020A1BDAE41AF8
:102C9C0062EB0102C0E90442002413EB0E034CEB7F
:102CAC0001012046C8E90031C9F8004001F03DF8A7
:102CBC002146FFF70FF985F31188BFF36F8FBDE83D
:102CCC00F047FFF7BBBE14EB0E024CEBE473C0E90C
:102CDC000467C8E90023FFF70FFF85F31188BFF3E2
:102CEC006F8F83689847EFF31185102383F3128855
:102CFC00BFF36F8FD9F800301B1BC9F80030FFF7FA
:102D0C00E9FEB8E7CC0300203002002010B5EFF349
:102D1C001184102383F31288BFF36F8FFFF7E2FE49
:102D2C000346054AD2E90001181841EBE37184F31C
:102D3C001188BFF36F8F10BD30020020014800F0E6
:102D4C00C9BA00BFED4C00082DE9F04F43688DB0B7
:102D5C0015468046029383789A0740F10D81002432
:102D6C000E78002E00F00A81252E0BD04B1C0393FD
:102D7C00013441463046029B98470028C0F2F68049
:102D8C000399EDE74E788B1C252E0393F0D000278A
:102D9C00B946BB46BBF11F0F38D8A6F12003102B48
:102DAC000AD8DFE803F02A090930090909210909C1
:102DBC000928092D09091F00A6F13003092B33D965
:102DCC002A2E37D11BF0400F55F8043B40F082807F
:102DDC00002BA7BF4BF0200B9946C3F100094BF019
:102DEC00280B01E04BF0010B039B13F8016B0393D1
:102DFC00002ECFD130E04BF0020B4BF0040BF3E77D
:102E0C004BF0080BF0E74BF0100BEDE7BBF17F0F2D
:102E1C0019D8A6F13003092BD2D81BF0400F03D0E0
:102E2C000A2101FB0737DFE70A214BF0200B01FBDE
:102E3C000939D9E72E2E06D11BF0400F40F09E80A9
:102E4C004BF0400BD0E76C2E31D02BD8682E36D0FF
:102E5C006A2E3CD04C2E3AD0002F46F02003B8BF3F
:102E6C002BF04002A3F16501BCBF00271FFA82FBC7
:102E7C00022901D9612B2FD107350727DFF8ACA226
:102E8C0025F0070508351BF0080F66D00AEB070B79
:102E9C0056465E4563D1A4EB0A0AA9EB070906EB7B
:102EAC000A026FE1742E9FD07A2E9DD0D4E71BF0CE
:102EBC00800F18BF4BF4007B4BF0800B94E71BF496
:102ECC00807F18BF4BF4007B4BF4807B8CE74BF47A
:102EDC00207B89E71F4687E7A6F16301122900F2E0
:102EEC00F080DFE811F013004F00EE00EE00EE0072
:102EFC00EE004F00EE00EE00EE00EE00EE00FE00E5
:102F0C00E900EE00EE001B00EE00AF0055F8043BAC
:102F1C0001270DF1180A8DF81830B4E755F804ABF9
:102F2C00834BBAF1000F08BF9A461BF0400F504676
:102F3C0014BF39464FF0FF3100F04FFF0746A2E7B0
:102F4C0041462020029B984700280FDB013EB742E8
:102F5C00F6D34C44B146A41B98E74E46F7E74146DE
:102F6C0016F8010B029B9847002892DA98F8023069
:102F7C0043F0040388F802304FF0FF3420460DB0C4
:102F8C00BDE8F08F1BF0800F34D01BF4007F2CD0E9
:102F9C00073525F00705AA4669685AF8080B2BF087
:102FAC0010050029ADB237DA404245F4806561EB7B
:102FBC0041010DF1180B0A235A4600F01AFFA0EB41
:102FCC000B0301936B0662D5019B25F001019F4217
:102FDC0089B240F3A180002E00F0998015F0100208
:102FEC0040F09C80BB460D4623E0AA465AF8040BE1
:102FFC00C117D4E7AA461BF4807F5AF8041B01D1F1
:10300C000846F5E71BF4007F19BF48B241F3C01125
:10301C0008B241F3C031C2E750EA0103C9D11BF039
:10302C00400FC6D0002FC4D12BF01102BB46019724
:10303C0095B240F2064115EA01021CBF0BF1010BDF
:10304C0000222CE02BF010020A231FFA82FB1BF04B
:10305C00800C49D01BF4007115BF0735AA4625F02A
:10306C0007055AF8040B1EBFAA4669685AF8080BE4
:10307C0050EA010545D12BF016051BF0400FADB2FF
:10308C0042D0002F40D12BF01702019795B215F0CA
:10309C00100248D0019B002E42D103F1010B2907ED
:1030AC005AD4EB0706D5D9456FDDA9EB0B03019973
:1030BC00CB465F185B4649E04BF0100B102378268B
:1030CC00C5E7782B04D1C6F1780343F01003BEE7B3
:1030DC0041462520029B98470028FFF647AF023453
:1030EC0047E608230026B2E7AA461BF480715AF87B
:1030FC00040BBDD01BF400711ABFC0B2614680B284
:10310C00B6E72BF0060295B20DF1180B54E725F03B
:10311C001105BB46ADB28CE70D46B8E73B460D46F4
:10312C0003F1020BBBE7DDF804B082E72F4D00087A
:10313C00284D0008CDE9043241462020029B9847D7
:10314C000028FFF613AF049B059A01339945F1DC77
:10315C00A4EB0B019B46CC180AB341463020029BD2
:10316C0098470028FFF602AF8EB901342744391B6B
:10317C00019B994224DC1D4655BB019AA9EB0B0916
:10318C00554622441446914433E0019F92E70234A1
:10319C0041463046029B98470028E7DAE6E640F2C3
:1031AC0006410D42E2D015F0020F04F10104414634
:1031BC0014BF2B20202015F4806F18BF2D20E9E7B9
:1031CC0041463020029B013498470028CFDACDE6E7
:1031DC0006AB013D4146585D029B98470028CBDA6F
:1031EC00C4E641462020029B013498470028FFF694
:1031FC00BDAEA9EB0403002BF3DCC1E5704700EB7B
:10320C00C100408840087047F8B50346FFF7F7FF48
:10321C00B0FA80F0C0F11F0003EB800CDCF81060FA
:10322C00CA00171D0C4606328DB256B9012101FA9F
:10323C0000F0D9680143D960CCF81040DD539D52A1
:10324C00F8BDF1000431585AD85303EBC0009E521C
:10325C00C5805D52F4E7043A2DE9F041CC1D1144D0
:10326C0024F0070421F007010E1BF708B7FA87F2C8
:10327C004FF00008C2F12405AD000735C2F1200261
:10328C00ED0804604146A760C4F80C80920004F17C
:10329C00100000F09AFD6B0043F0010363807B1B70
:1032AC0004EBC5025900A4F800805180A21924F83F
:1032BC003550A2F80280A35304EBC7035A88294661
:1032CC0042F001025A802046BDE8F041FFF79CBF56
:1032DC00002070470FB407B504A951F8040B0191F5
:1032EC00FDF736F903B05DF804EB04B07047704796
:1032FC0001460068FDF7CAB908B5FDF7F7F9BDE856
:10330C000840FDF717BA00210120FDF7BFB9036E85
:10331C0083F30B8870476FF08500704761B662B617
:10332C0080F31188BFF36F8F704772B6002383F35D
:10333C001188BFF36F8FBFF34F8F30BF62B6BFF3EF
:10334C006F8F704740E800F313F4803FD8B208BF8A
:10335C006FF01500704730B50C684B6885B00A8962
:10336C004D890094013B24F01F04234402F01F02FA
:10337C0042EA451223F01F0369468DF80820039397
:10338C00FDF736FD05B030BD08B5FDF7F1FE0020A8
:10339C0008BD002008B50B21FDF77CFF0246014655
:1033AC000B20FDF74FFC00220C210120FDF772FFD2
:1033BC0011460C20FDF746FC00220D210220FDF7E2
:1033CC0069FF11460D20FDF73DFC00220E21032064
:1033DC00FDF760FF11460E20FDF734FC00220F2193
:1033EC000420FDF757FF11460F20FDF72BFC0022A0
:1033FC0010210520FDF74EFF11461020FDF722FC91
:10340C00002211210620FDF745FF11461120FDF782
:10341C0019FC002212210720FDF73CFF1146122057
:10342C00FDF710FC002213210820FDF733FF114695
:10343C001320FDF707FC002214210920FDF72AFFB9
:10344C0011461420FDF7FEFB002215210A20FDF782
:10345C0021FF11461520FDF7F5FB002216210B204C
:10346C00FDF718FF11461620FDF7ECFB0022172183
:10347C000C20FDF70FFF11461720FDF7E3FB002290
:10348C0018210D20FDF706FF11461820FDF7DAFB79
:10349C00002219210E20FDF7FDFE11461920FDF723
:1034AC00D1FB00221A210F20FDF7F4FE11461A2041
:1034BC00FDF7C8FB002008BD012001F01F0188406A
:1034CC00704710B50F24C20000F00C0000F18840CA
:1034DC0000F50830036E02F01802944023EA04034E
:1034EC0091400B43036610BD0B8882B0C3F30B03F2
:1034FC0003F67872C2F30B02202A14D803F1884326
:10350C0003F503331A684868024300201A600B88DD
:10351C00C3F30B0303F1884303F503331B680193D7
:10352C00019B02B070476FF08500FAE70B88C3F37C
:10353C000B0303F67872C2F30B02202A9FBF03F130
:10354C00884303F503331A6849689BBF00208A43FC
:10355C006FF085001A607047431E032B06D907389D
:10356C0007288CBF6FF08500002070470020704743
:10357C0008B50888C0F30B00FFF7EEFF00280DDB41
:10358C0049688BB203F1884303F503331868CA0EFC
:10359C00C1F305418A40024300201A6008BD088827
:1035AC0008B5C0F30B0000F67873C3F30B03202BA4
:1035BC000AD800F1884000F5033002684B68934349
:1035CC0014BF0120022008BDFFF7C6FF002814BF5E
:1035DC0001200220F7E7436800205B681B690B6041
:1035EC00704743685B68586942400A4042405A61E0
:1035FC0000207047436800205B68996170474368FE
:10360C0000205B6899627047436800205A685369D0
:10361C004B405361704710B503699868F8B1884204
:10362C0019D1DC680868A142986000D1D8600020EC
:10363C0008602AB19A680A60DA68996002B9D960A0
:10364C00002010E0814206D108682060D8688142D1
:10365C00EDD1DC60EBE7044600680028F2D1002ACB
:10366C00E8D16FF0150010BDF0B544680120676813
:10367C0088401E46C2F3801327EA00078B403B4369
:10368C0090FAA0F7B7FA87F74FF0030E6360D4F8FF
:10369C0008C07F000EFA07F72CEA070C90FAA0F787
:1036AC00B7FA87F7C2F3C1137F00BB4043EA0C03A0
:1036BC00A36090FAA0F3B3FA83F3E7685B000EFA09
:1036CC0003F327EA030790FAA0F3B3FA83F302F0AB
:1036DC0030055B00C2F341229A403A43202DE26050
:1036EC0016D107292BD890FAA0F3226A2BB3B3FA80
:1036FC0083F30F219B0001FA03F322EA030290FAF1
:10370C00A0F3B3FA83F39B0006FA03F3134323628B
:10371C0090FAA0F3B3FA83F390FAA0F00321B0FA75
:10372C0080F022685B002D0901FA03F3400022EAC5
:10373C00030385401D432560F0BD2B46D9E7030AE2
:10374C00616A93FAA3F282B1B2FA82F293FAA3F30A
:10375C000F27B3FA83F3920007FA02F29B0021EAD7
:10376C0002029E4016436662D2E72A46EEE712F446
:10377C00003CF8B50C4613461DD0960714D55507DA
:10378C005CD55022D90611D542F4007203F4C06105
:10379C00B1F5806F42D0B1F5C06F19D0B1F5007F93
:1037AC0018D142F0800215E01022EBE79F06EDD510
:1037BC0042F48062EAE7D60305D5D50605D4C2F3F8
:1037CC0040129202E2E73022E0E74FF40072DDE7AC
:1037DC0042F4C07213F44036056908D02F6927FAF9
:1037EC0004F1C9075FBF0121A14039432961BCF134
:1037FC00000F06D01F03416813D501234968A3406D
:10380C008B61002321464068FFF72EFF26B92B69F8
:10381C0023FA04F2D2070BD40020F8BD42F48072D4
:10382C00D8E75F0341BF01234968A3408B62E8E7F7
:10383C000122A24023EA02032B61EDE76FF0850021
:10384C00EBE770B50B468968054611B15E680C68EC
:10385C0001B970BD8A682A4002D030464B6898473F
:10386C001CB1236821461C46F2E72346FAE7F8B55B
:10387C001F46044640680E461546FFF7F5FE112F0D
:10388C0008D1012303FA06F663682A055B684CBF6E
:10389C009E619E620020F8BD30B503681360057907
:1038AC00046804EBC504A34202D36FF0010030BDE1
:1038BC005C798C4201D00833F0E70020F7E74368CD
:1038CC00C1F34B101B6801F01F01C05801238B4042
:1038DC00034214BF0123002300201370704710B55E
:1038EC004368C1F34B101A680123845801F01F017F
:1038FC008B4023438350002010BD012210B5436838
:10390C00C1F34B14186801F01F0123588A4023EAB5
:10391C0002032350002010BD38B504460D46FFF7B6
:10392C00DEFF29462046FFF7E8FF002038BDB0F542
:10393C00805F07D0B0F1805F09D1002914BF01204E
:10394C0002207047002914BF03200420704700296F
:10395C0014BF02200320704743681B68D869DA69DA
:10396C00C0F3C000D107DA6948BF40F002009207EB
:10397C00DA6948BF40F004005107DA6948BF40F0EB
:10398C002000D20542BF4FF4807240F008001A624A
:10399C00C10744BF08221A62820744BF01221A627F
:1039AC00410744BF02221A62820644BF04221A62F3
:1039BC00704710B5436810201B68DA691206FCD5F5
:1039CC00EFF3118280F31288BFF36F8FDC6924064A
:1039DC0004D482F31188BFF36F8FEEE7996282F300
:1039EC001188BFF36F8F10BD43681B68DA6910072D
:1039FC0044BF08221A62DA69920643BF5B6A002050
:103A0C000B704FF0FF30704710B5026904465268D6
:103A1C000B4612680A6042681268126802F4C062AF
:103A2C00B2F5806F33D0A2F5C060424242411A71A8
:103A3C0062681268526802F44052B2F5805F28D076
:103A4C00B2F5405F27D0002A0CBF012203225A7125
:103A5C00626812681068116800F0102001F4C061EF
:103A6C00FFF765FF9871626800201268926802F493
:103A7C004072A2F540714A424A41DA7161680968A4
:103A8C00896811F4804F18BF0322DA7110BD02222D
:103A9C00CDE70022DBE70222D9E72DE9F8430C79C8
:103AAC000369012C05460E46D0F804905F6814D0CB
:103ABC00A01ED0F1000848EB00084FEA88284846C1
:103ACC007179FDF707FFB379022B09D0042B30D0A5
:103ADC00231E18BF01231B0306E04FF4C068EEE75A
:103AEC00B4FA84F35B091B07F279D9F80010012AA8
:103AFC0014BF00244FF44074B7421DD10A6822F061
:103B0C00805222F4B05242EA08021A430A604B680F
:103B1C0023F4405303434B606B6828461A68936840
:103B2C0023F44073234393603968BDE8F843FDF7F1
:103B3C000FBF4FF48053D7E7D1F800C00CF4C06C22
:103B4C00E0451FBFD1F800C02CF4C06C4CEA080C47
:103B5C00C1F800C06968D1F800C0DCF8041001F4A9
:103B6C00405188421FBFDCF8041021F4405101433E
:103B7C00CCF8041069680868016801F010218B42C8
:103B8C001FBF016821F010210B4303606B6819689B
:103B9C008B6803F440739C421FBF8B6823F4407303
:103BAC0023438B606B681B689968490405D5032A0D
:103BBC0009D09A6822F4804204E0032A03D19A685F
:103BCC0042F480429A6031683B68994204D028469E
:103BDC00FDF7BEFE33683B60BDE8F883704740B12B
:103BEC00C368587810F001001EBF1878B0FA80F046
:103BFC0040097047EFF31183102383F31288BFF34E
:103C0C006F8FFEE708B5FFF7F5FF10B54369044663
:103C1C0033B90020E268537843F00103537010BDB0
:103C2C0098470028F5D00028B8BF4042FF28A8BF0D
:103C3C00FF20E3681870EDE700F0C7B800F0B8B8E3
:103C4C00102408B5EFF3118384F31288BFF36F8F40
:103C5C00FFF76BFBF6E7D0E9003213605A600023E4
:103C6C00C0E90033704708B5FFF7F5FF437B23F03D
:103C7C00020343730023836008BD10B5EFF3118476
:103C8C00102383F31288BFF36F8FFEF70DFC84F3C0
:103C9C001188BFF36F8F10BD014610B5EFF311847F
:103CAC00102383F31288BFF36F8F437B13F0280F1D
:103CBC000AD183680BB1FFF7D6FF4B7B084623F084
:103CCC0004034B73FEF7F0FB84F31188BFF36F8F83
:103CDC0010BD01211838FFF7DFBF38B504460D467B
:103CEC00FEF750FDB5F1FF3F08BFB4F1FF3F0346AF
:103CFC00204614D013F109004FEAE37141F10001A1
:103D0C000A2871F100030BD36FF00A0383424FF0C2
:103D1C0004038B4106D30A220023FCF791FA38BD29
:103D2C000020FCE76FF00040F9E708B50246FEF70B
:103D3C00D1FE70B1D0E904319B1A61EBE272B3F1A0
:103D4C00004F72F1000104DA002AACBF18460020C3
:103D5C0008BD6FF00040FBE7024638B5EFF3118564
:103D6C00102383F31288BFF36F8F0368CBB1FEF778
:103D7C00B1FE04461046FEF7BFFE00224FF0004392
:103D8C008442C0E9042306D1FEF7ACFEFFF7CDFF59
:103D9C000021FEF79FF8002085F31188BFF36F8F89
:103DAC0038BD6FF01500F7E708B5FEF7AFFF08BD9B
:103DBC000A44431E914200D1704710B511F8014BD3
:103DCC00914203F8014FF9D110BD024403469342CE
:103DDC0000D1704703F8011BF9E70246014410B506
:103DEC008A42134603D01C780132002CF8D1181AE1
:103DFC0010BDF0B5C3F13707044603F01F0310469E
:103E0C00FFB2082BE6B232D0102B3DD06508A408C7
:103E1C0045EAC17544EA81748A082D1942EB5102B6
:103E2C00290941EA02716D1842EB1212290A41EA82
:103E3C0002616D1842EB1222290C41EA02416D1805
:103E4C0042EB1242AD1842F10002EC0844EA427413
:103E5C00D10804EB8402A6EB4205EDB2092D0CD976
:103E6C000134A5F10A0541F10001EDB212E0E408BC
:103E7C0006F0070544EA4174C908303554EA0102DA
:103E8C0000F8015BBDD1F0BD240906F00F0544EA32
:103E9C0001740909092D84BFED19EDB2EDE700009D
:0C3EAC0001480068704700004002002040
:083EB800C8C3FF7F01000000F8
:103EC00000000000583F0008C10500080000000085
:103ED00000000000783F0008000000007840000863
:103EE0000000000098400008000000001840000892
:103EF00000000000F83F000800000000983F0008A4
:103F0000000000005840000800000000B840000811
:103F1000000000003840000800000000D83F000802
:103F200000000000B83F00089F33000800000000B8
:103F300000000000F840000800000000D840000821
:103F40002517000800000000491E000800000000BE
:083F5000A511000800000000AB
:103F58002C4C000800000000644500086E0000209A
:103F680000000000691500080000000000000000C3
:103F7800B74C0008C04600085445000882000020DD
:103F88000000000000000000000000000000000029
:103F98000E4C000800000000000000006C0000202B
:103FA80000000000C9130008000000000000000025
:103FB800394C0008C845000830450008700000204A
:103FC800E80200202518000800000000000000009A
:103FD800474C0008DC450008304500087200002006
:103FE800FC02002025180008000000000000000066
:103FF800554C0008F04500083045000874000020C2
:104008001003002025180008000000000000000030
:10401800634C00080446000830450008760000207C
:1040280024030020251800080000000000000000FC
:10403800714C000818460008304500087800002038
:1040480038030020251800080000000000000000C8
:104058007F4C00082C460008304500087A000020F4
:104068004C03002025180008000000000000000094
:104078008D4C000840460008304500087C000020B0
:104088006003002025180008000000000000000060
:104098009B4C000854460008304500087E0000206C
:1040A800740300202518000800000000000000002C
:1040B800A94C000868460008304500088000002028
:1040C80088030020251800080000000000000000F8
:1040D800C84C0008C4460008804500088400002039
:1040E8001C000020E11B0008000000000000000088
:1040F800D84C0008104700088045000886000020BA
:104108002C000020E11B0008000000000000000057
:1041180000000000133300080000000013330008FB
:1041280000000000133300080000000013330008EB
:1041380000000000133300080000000013330008DB
:1041480000000000133300080000000013330008CB
:1041580000000000133300080000000013330008BB
:1041680000000000133300080C4C00084D12000832
:104178000A4C00084D120008084C00084D120008AF
:10418800064C00084D120008044C00084D120008A7
:10419800024C00084D120008004C00084D1200089F
:1041A800FE4B00084D120008FC4B00084D12000899
:1041B800FA4B00084D120008F84B00084D12000891
:1041C800F64B00084D120008F44B00084D12000889
:1041D800F24B00084D120008F04B00084D12000881
:1041E800EE4B00084D1200080000000013330008D1
:1041F800000000001333000800000000133300081B
:10420800000000001333000800000000133300080A
:1042180000000000133300080000000013330008FA
:1042280000000000133300080000000013330008EA
:1042380000000000133300080000000013330008DA
:1042480000000000133300080000000013330008CA
:1042580000000000133300080000000013330008BA
:1042680000000000133300080000000013330008AA
:10427800000000001333000800000000133300089A
:10428800000000001333000800000000133300088A
:10429800000000001333000800000000133300087A
:1042A800000000001333000800000000133300086A
:1042B800000000001333000800000000133300085A
:1042C800000000001333000800000000133300084A
:1042D800000000001333000800000000133300083A
:1042E800000000001333000800000000133300082A
:1042F800000000001333000800000000133300081A
:104308000000000013330008000000001333000809
:1043180000000000133300080000000013330008F9
:1043280000000000133300080000000013330008E9
:1043380000000000133300080000000013330008D9
:1043480000000000133300080000000013330008C9
:1043580000000000133300080000000013330008B9
:1043680000000000133300080000000013330008A9
:104378000000000013330008000000001333000899
:104388000000000013330008000000001333000889
:104398000000000013330008000000001333000879
:1043A8000000000013330008000000001333000869
:1043B8000000000013330008000000001333000859
:1043C8000000000013330008000000001333000849
:1043D8000000000013330008000000001333000839
:1043E8000000000013330008000000001333000829
:1043F8000000000013330008000000001333000819
:104408000000000013330008000000001333000808
:1044180000000000133300080000000013330008F8
:1044280000000000133300080000000013330008E8
:1044380000000000133300080000000013330008D8
:1044480000000000133300080000000013330008C8
:1044580000000000133300080000000013330008B8
:1044680000000000133300080000000013330008A8
:104478000000000013330008000000001333000898
:104488000000000013330008000000001333000888
:104498000000000013330008000000001333000878
:1044A8000000000013330008000000001333000868
:1044B8000000000013330008000000001333000858
:1044C8000000000013330008000000001333000848
:1044D8000000000013330008000000001333000838
:1044E8000000000013330008000000001333000828
:1044F8000000000013330008000000001333000818
:104508000000000013330008000000001333000807
:1045180000000000133300080000000013330008F7
:0845280000000000133300083D
:104530007B370008E3350008EF3500080136000836
:104540000B360008153600087517000823360008DA
:044550000000000067
:10455400CB380008EB380008073900082539000873
:10456400F5340008393500080000000091140008F3
:0C457400AB350008000000007D35000899
:10458000F5390008BF39000865390008191A000814
:04459000153A0008D0
:1045940000000020000000000600010002000000EE
:1045A400A845000800000008DF4B000806000000D2
:1045B400E0FF1F0800000020E74B00082100000076
:1045C400E0FF0320FFFF000000200242080000007B
:1045D4008C00000000010000FFFF0000001C0242EC
:1045E400070000008C00000080000000FFFF0000B6
:1045F40000180242060000008C0000004000000089
:10460400FFFF000000140242050000008C000000BF
:1046140020000000FFFF0000001002420400000020
:104624008C00000010000000FFFF0000000C02429C
:10463400030000008C00000008000000FFFF0000E1
:1046440000080242020000008C0000000400000088
:10465400FFFF000000040242010000008C00000083
:1046640002000000FFFF0000000002420000000002
:104674008C00000001000000B840000898400008C9
:1046840078400008584000083840000818400008E6
:10469400F83F0008D83F0008B83F000800000000B9
:1046A4000000000000000000000000000000000006
:1046B400000000000000000000000000000C0244A4
:1046C40000240044783F000806100000E846000873
:1046D40001000000000000000000000000000000D5
:1046E400F0460008A800000040000000F84600085A
:1046F400010000000047000802000000C80200009A
:1047040000020000E8020000000000000048004031
:10471400783F0008920E00003447000801000000B2
:104724000000000000000000000000003C470008FA
:104734009C00000000000400444700080100000041
:104744004C470008020000000707000000020000B8
:104754002707000000000000C03E0008C03E00081B
:10476400483F0008503F0008583F0008583F0008E1
:10477400010002000400060008000A000C001000FA
:104784002000400080000001000100010001000140
:1047940052616E646F6D2076616C75653A20257583
:1047A4000D0A0072302F61313A20203078253038DC
:1047B40078202072312F61323A2020307825303829
:1047C40078202072322F61333A2020307825303817
:1047D400780A0072332F61343A202030782530383B
:1047E40078207231322F69703A20203078253038A1
:1047F40078207231342F6C723A202030782530388A
:10480400780A0020787073723A2020307825303886
:10481400780A004661756C74696E6720696E7374FA
:1048240072756374696F6E2061646472657373205A
:10483400287231352F7063293A2030782530387842
:104844000A00556E68616E646C6564204952516E4D
:104854003A2025640A002A2A2A2A2A205553414745
:1048640045204641554C54202A2A2A2A2A0A002047
:10487400204469766973696F6E206279207A657263
:104884006F0A002020556E616C69676E6564206D47
:10489400656D6F7279206163636573730A0020200C
:1048A400537461636B206F766572666C6F77202832
:1048B400636F6E746578742061726561206E6F74C5
:1048C4002076616C6964290A0020204E6F20636F92
:1048D40070726F636573736F7220696E737472752F
:1048E4006374696F6E730A002020496C6C6567619C
:1048F4006C206C6F6164206F66204558435F52459D
:104904005455524E20696E746F2050430A00202083
:10491400496C6C6567616C20757365206F662074E3
:10492400686520455053520A002020417474656D17
:10493400707420746F206578656375746520756E76
:10494400646566696E656420696E737472756374F8
:10495400696F6E0A002A2A2A2A2A204255532046C1
:1049640041554C54202A2A2A2A2A0A00202053740A
:1049740061636B696E67206572726F720A00202032
:10498400556E737461636B696E67206572726F72C2
:104994000A00202050726563697365206461746144
:1049A40020627573206572726F720A00202042467D
:1049B400415220416464726573733A2030782578DB
:1049C4000A002020496D7072656369736520646113
:1049D400746120627573206572726F720A00202000
:1049E400496E737472756374696F6E206275732097
:1049F4006572726F720A002020466C6F6174696E72
:104A0400672D706F696E74206C617A79207374619C
:104A1400746520707265736572766174696F6E2057
:104A24006572726F720A002A2A2A2A2A204D50556A
:104A3400204641554C54202A2A2A2A2A0A0020209A
:104A4400537461636B696E67206572726F7220289C
:104A5400636F6E746578742061726561206D696737
:104A64006874206265206E6F742076616C696429B5
:104A74000A002020446174612041636365737320DC
:104A840056696F6C6174696F6E0A0020204D4D4643
:104A9400415220416464726573733A2030782578FA
:104AA4000A002020496E737472756374696F6E20F6
:104AB4004163636573732056696F6C6174696F6ECB
:104AC4000A00526573657276656420457863657083
:104AD40074696F6E20280053707572696F75732046
:104AE400696E746572727570742028495251200081
:104AF400535053454C20696E20746872656164207C
:104B04006D6F646520646F6573206E6F7420696EC9
:104B1400646963617465205053500A002A2A2A2A62
:104B24002A2048415244204641554C54202A2A2ADE
:104B34002A2A0A002020427573206661756C74204D
:104B44006F6E20766563746F72207461626C652089
:104B5400726561640A002020446562756720657689
:104B6400656E740A0020204661756C742065736359
:104B7400616C6174696F6E20287365652062656C71
:104B84006F77290A00415243485F455843455054C2
:104B9400207769746820726561736F6E2025780AC6
:104BA4000A002A2A2A2A2A204465627567206D6F22
:104BB4006E69746F7220657863657074696F6E20B6
:104BC4002A2A2A2A2A0A002A2A2A2A2A202573205B
:104BD400256429202A2A2A2A2A0A00464C415348B5
:104BE4005F30005352414D5F30000F010E010D0143
:104BF4000C010B010A010901080107010601050165
:104C040004010301020101010001696E74657272FD
:104C14007570742D636F6E74726F6C6C6572403452
:104C240034303232303030007263634034343032E6
:104C340030633030006770696F4034323032323064
:104C44003030006770696F40343230323163303055
:104C5400006770696F403432303231383030006769
:104C640070696F40343230323134303000677069EB
:104C74006F403432303231303030006770696F4009
:104C84003432303230633030006770696F40343210
:104C9400303230383030006770696F40343230322F
:104CA40030343030006770696F4034323032303025
:104CB40030300072657365742D636F6E74726F6C3F
:104CC4006C65720073657269616C403434303032E3
:104CD4003430300073657269616C40343030303484
:104CE400383030006D61696E002A2A2A20426F6FC5
:104CF40074696E67205A6570687972204F53206218
:104D040075696C642076342E322E302D3135313471
:104D14002D67393635626364363331326533202A80
:104D24002A2A0A00286E756C6C29002A666C6F6149
:044D3400742A0000DD
:104D380015CD5B0700000000DD3200080000000010
:104D4800953300080000000000000000000000008B
:104D58002400002000C20100000103000000000040
:104D68003400002000C20100000103000090D003BD
:104D7800C80000004400002044000020FF00FF009D
:104D8800FF00FF00FF00FF00FF00FF00FF00FF0023
:0C4D9800FF00FF00FF00FF00FF00FF0015
:104DA40000000000000000000000000000000000FF
:0C4DB400000000000000000000000000F3
:044DC00015E015E005
:0400000508000B5193
:00000001FF
