:020000040800F2
:100000005028002041290008C58700082D29000834
:100010002D2900082D2900082D2900082D29000868
:10002000000000000000000000000000012A00089D
:100030002D29000800000000A129000841590008EE
:100040005D2B00085D2B00085D2B00085D2B000870
:100050005D2B00085D2B00085D2B00085D2B000860
:100060005D2B00085D2B00085D2B00085D2B000850
:100070005D2B00085D2B00085D2B00085D2B000840
:1002500081F0004102E000BF83F0004330B54FEA77
:1002600041044FEA430594EA050F08BF90EA020FE4
:100270001FBF54EA000C55EA020C7FEA645C7FEA77
:10028000655C00F0E2804FEA5454D4EB5555B8BF9A
:100290006D420CDD2C4480EA020281EA030382EA0B
:1002A000000083EA010180EA020281EA0303362D9D
:1002B00088BF30BD11F0004F4FEA01314FF4801C70
:1002C0004CEA113102D0404261EB410113F0004F82
:1002D0004FEA03334CEA133302D0524263EB430339
:1002E00094EA050F00F0A780A4F10104D5F1200ED7
:1002F0000DDB02FA0EFC22FA05F2801841F1000132
:1003000003FA0EF2801843FA05F359410EE0A5F105
:1003100020050EF1200E012A03FA0EFC28BF4CF036
:10032000020C43FA05F3C01851EBE37101F00045EC
:1003300007D54FF0000EDCF1000C7EEB00006EEBF9
:100340000101B1F5801F1BD3B1F5001F0CD3490883
:100350005FEA30004FEA3C0C04F101044FEA4452DA
:1003600012F5800F80F09A80BCF1004F08BF5FEA61
:10037000500C50F1000041EB045141EA050130BD41
:100380005FEA4C0C404141EB0101013C28BFB1F553
:10039000801FE9D291F0000F04BF01460020B1FA9E
:1003A00081F308BF2033A3F10B03B3F120020CDA71
:1003B0000C3208DD02F1140CC2F10C0201FA0CF04F
:1003C00021FA02F10CE002F11402D8BFC2F1200CB4
:1003D00001FA02F120FA0CFCDCBF41EA0C0190406A
:1003E000E41AA2BF01EB0451294330BD6FEA0404B3
:1003F0001F3C1CDA0C340EDC04F11404C4F120029E
:1004000020FA04F001FA02F340EA030021FA04F3AF
:1004100045EA030130BDC4F10C04C4F1200220FA06
:1004200002F001FA04F340EA0300294630BD21FA44
:1004300004F0294630BD94F0000F83F4801306BF0A
:1004400081F480110134013D4EE77FEA645C18BFFE
:100450007FEA655C29D094EA050F08BF90EA020F95
:1004600005D054EA000C04BF1946104630BD91EA8D
:10047000030F1EBF0021002030BD5FEA545C05D190
:100480004000494128BF41F0004130BD14F58004CF
:100490003CBF01F5801130BD01F0004545F0FE4143
:1004A00041F470014FF0000030BD7FEA645C1ABF78
:1004B000194610467FEA655C1CBF0B46024650EAAF
:1004C000013406BF52EA033591EA030F41F40021DB
:1004D00030BD00BF90F0000F04BF0021704730B561
:1004E0004FF4806404F132044FF000054FF0000136
:1004F00050E700BF90F0000F04BF0021704730B5F7
:100500004FF4806404F1320410F0004548BF4042CB
:100510004FF000013EE700BF42004FEAE2014FEA20
:1005200031014FEA02701FBF12F07F4393F07F4FFB
:1005300081F06051704732F07F4208BF704793F0FE
:100540007F4F04BF41F40021704730B54FF4607411
:1005500001F0004521F000411CE700BF50EA010214
:1005600008BF704730B54FF000050AE050EA0102BD
:1005700008BF704730B511F0004502D5404261EB2D
:1005800041014FF4806404F132045FEA915C3FF46E
:10059000D8AE4FF003025FEADC0C18BF03325FEA0B
:1005A000DC0C18BF033202EBDC02C2F1200300FABC
:1005B00003FC20FA02F001FA03FE40EA0E0021FAE1
:1005C00002F11444BDE600BF70B54FF0FF0C4CF4CF
:1005D000E06C1CEA11541DBF1CEA135594EA0C0F81
:1005E00095EA0C0F00F0DEF82C4481EA030621EABC
:1005F0004C5123EA4C5350EA013518BF52EA0335F7
:1006000041F4801143F4801338D0A0FB02CE4FF0A8
:100610000005E1FB02E506F00042E0FB03E54FF0D8
:100620000006E1FB03569CF0000F18BF4EF0010ED0
:10063000A4F1FF04B6F5007F64F5407404D25FEACC
:100640004E0E6D4146EB060642EAC62141EA55517F
:100650004FEAC52040EA5E504FEACE2EB4F1FD0CC1
:1006600088BFBCF5E06F1ED8BEF1004F08BF5FEA3F
:10067000500E50F1000041EB045170BD06F00046F1
:1006800046EA010140EA020081EA0301B4EB5C049E
:10069000C2BFD4EB0C0541EA045170BD41F4801196
:1006A0004FF0000E013C00F3AB8014F1360FDEBFBB
:1006B000002001F0004170BDC4F10004203C35DA97
:1006C0000C341BDC04F11404C4F1200500FA05F31A
:1006D00020FA04F001FA05F240EA020001F00042BB
:1006E00021F0004110EBD37021FA04F642EB060131
:1006F0005EEA430E08BF20EAD37070BDC4F10C045B
:10070000C4F1200500FA04F320FA05F001FA04F21E
:1007100040EA020001F0004110EBD37041F100010A
:100720005EEA430E08BF20EAD37070BDC4F1200515
:1007300000FA05F24EEA020E20FA04F301FA05F27D
:1007400043EA020321FA04F001F0004121FA04F225
:1007500020EA020000EBD3705EEA430E08BF20EAF5
:10076000D37070BD94F0000F0FD101F0004640002F
:1007700041EB010111F4801F08BF013CF7D041EAB1
:10078000060195F0000F18BF704703F000465200B5
:1007900043EB030313F4801F08BF013DF7D043EA86
:1007A0000603704794EA0C0F0CEA135518BF95EA3C
:1007B0000C0F0CD050EA410618BF52EA4306D1D1C3
:1007C00081EA030101F000414FF0000070BD50EAE2
:1007D000410606BF1046194652EA430619D094EA6C
:1007E0000C0F02D150EA013613D195EA0C0F05D156
:1007F00052EA03361CBF104619460AD181EA0301AA
:1008000001F0004141F0FE4141F470014FF0000061
:1008100070BD41F0FE4141F4780170BD70B54FF0FC
:10082000FF0C4CF4E06C1CEA11541DBF1CEA13557C
:1008300094EA0C0F95EA0C0F00F0A7F8A4EB05045E
:1008400081EA030E52EA03354FEA013100F0888055
:100850004FEA03334FF0805545EA131343EA12631E
:100860004FEA022245EA111545EA10654FEA0026D3
:100870000EF000419D4208BF964244F1FD0404F58C
:10088000407402D25B084FEA3202B61A65EB0305E8
:100890005B084FEA32024FF480104FF4002CB6EBA5
:1008A000020E75EB030E22BFB61A754640EA0C0025
:1008B0005B084FEA3202B6EB020E75EB030E22BF65
:1008C000B61A754640EA5C005B084FEA3202B6EBA6
:1008D000020E75EB030E22BFB61A754640EA9C0065
:1008E0005B084FEA3202B6EB020E75EB030E22BF35
:1008F000B61A754640EADC0055EA060E18D04FEAF3
:10090000051545EA16754FEA06164FEAC30343EA92
:1009100052734FEAC2025FEA1C1CC0D111F4801F5F
:100920000BD141EA00014FF000004FF0004CB6E758
:1009300011F4801F04BF01430020B4F1FD0C88BFF7
:10094000BCF5E06F3FF6AFAEB5EB030C04BFB6EB02
:10095000020C5FEA500C50F1000041EB045170BDF5
:100960000EF0004E4EEA113114EB5C04C2BFD4EB22
:100970000C0541EA045170BD41F480114FF0000EA6
:10098000013C90E645EA060E8DE60CEA135594EA22
:100990000C0F08BF95EA0C0F3FF43BAF94EA0C0F25
:1009A0000AD150EA01347FF434AF95EA0C0F7FF49A
:1009B00025AF104619462CE795EA0C0F06D152EAEE
:1009C00003353FF4FDAE1046194622E750EA4106D2
:1009D00018BF52EA43067FF4C5AE50EA41047FF4E3
:1009E0000DAF52EA43057FF4EBAE12E753B94AB9B3
:1009F000002908BF00281CBF4FF0FF314FF0FF3027
:100A000000F00CB8ADF1080C6DE904CE00F023F84D
:100A1000DDF804E0DDE9022304B07047704700BF51
:100A2000034613F8012B002AFBD1181A013870472E
:100A3000430803F05533C01A00F03333800800F048
:100A4000333018444FF0013300EB101000F00F303A
:100A50005843000E70472DE9F04786468C460846FD
:100A6000089E154674461946002B40F0C180854209
:100A7000B2FA82F245D94AB1C2F1200300FA02FC6F
:100A8000954094402EFA03F343EA0C0C4FEA154EBE
:100A9000A8B2230CBCFBFEF80EFB18CC08FB00F937
:100AA00043EA0C43994528D9EB1808F1FF3704D2E3
:100AB000994502D9A8F102072B44A3EB0903A4B27C
:100AC000B3FBFEFC0EFB1C330CFB00F044EA0344BA
:100AD000A04214D92C190CF1FF3304D2A04202D940
:100AE000ACF102032C44241A43EA07401EB1D4405F
:100AF000002334607360BDE8F0874746DDE7634656
:100B0000F1E792BB431B01214FEA154EAFB2200C17
:100B1000B3FBFEFC0EFB1C330CFB07F840EA03435F
:100B2000984561D9EB180CF1FF3004D2984502D9F1
:100B3000ACF102002B44A3EB0803A4B2B3FBFEFC10
:100B40000EFB1C330CFB07F744EA0344A7424DD9C4
:100B50002C190CF1FF3304D2A74202D9ACF10203E5
:100B60002C44E41B43EA0040C0E7C2F12003954057
:100B7000944020FA03F12EFA03F34FEA154E904009
:100B8000AFB20343B1FBFEFC0EFB1C10190C0CFBB7
:100B900007F841EA0041884522D969180CF1FF3075
:100BA00004D2884502D9ACF102002944A1EB080126
:100BB0009BB2B1FBFEFC0EFB1C110CFB07F743EADA
:100BC00001439F420ED9EB180CF1FF3104D29F4232
:100BD00002D9ACF102012B44DB1B41EA004193E74F
:100BE0006046E3E76146F7E76046A4E76346B8E797
:100BF000834206D916B9002108467CE7C6E900E021
:100C0000F9E7B3FA83F78FB9834201D3724508D865
:100C1000BEEB020460EB030301209C461EB90021D9
:100C200069E73846FAE7C6E9004CF8E7C7F1200C57
:100C3000BB400EFA07F522FA0CF42EFA0CF1BA407A
:100C40001C4320FA0CF3B8404FEA144901431FFA41
:100C500084FEB3FBF9F809FB18300B0C08FB0EFA05
:100C600043EA00439A4540D9E31808F1FF3004D223
:100C70009A4502D9A8F102002344A3EB0A0389B2E2
:100C8000B3FBF9F809FB183308FB0EFE41EA0341F8
:100C90008E452CD9611808F1FF3304D28E4502D954
:100CA000A8F10203214443EA0040A1EB0E01A0FB9E
:100CB00002984145CE46434602D306D14D4504D263
:100CC0000138B9EB020E68EB0403002EA7D0B5EB98
:100CD0000E0261EB030101FA0CFC22FA07F3F94062
:100CE0004CEA0303C6E9003199E74046C5E74346AD
:100CF000D9E70000000000002DE9F04F8BB000AFF5
:100D00000321914A914807F088FC914D284608F04C
:100D10001EFF48B98F4A01218C4807F07EFC002055
:100D20002C37BD46BDE8F08F8B4808F010FF08B99E
:100D30008A4AF0E74FF0FF3307F110043B610126C8
:100D40006360082307F11808C7E906437E62C7F805
:100D50002080AB688249D3F8009007F1200200237D
:100D60002846C847032007F04FF80021042007F069
:100D700068F8002800F0D8804FF48071304607F002
:100D800060F8002800F0D0804FF41F61192007F0B0
:100D900058F8002800F0C8804FF483733B84802308
:100DA00007F120010322212087F8223000F024F9E6
:100DB00048F21121092007F044F8002800F0B4801F
:100DC0000025052007F020F807F10E0119203D82CB
:100DD0003D83FD8107F008F82146092007F004F85B
:100DE0004146304607F000F8E8468AB06C46B7F84E
:100DF0000EB0B7F810A0B7F818905A4B32463B62C5
:100E000007F1200104F1140006F0E7FF04F11800D7
:100E1000C7F820B006F0E1FF04F11C00C7F820A0DD
:100E200006F0DBFFC7F8209004F1200006F0D5FFA4
:100E3000052322463B6242F8103F4FF423512B46D4
:100E4000424800F0D1FFC54640480321464A07F01A
:100E5000E4FB4FF47A7006F0DCFF20B90221434A2C
:100E60003A4807F0DAFB0FF2D00BDBE900AB404E5B
:100E70004FF4FA7006F0CDFF20B902213246334814
:100E800007F0CBFB3B4B02201A889B783A8487F80B
:100E90002230032207F1200100F074F8002845D029
:100EA00097F8215097F820302D0245EA034597F82E
:100EB00022301D43A5F50000FFF71CFB52465B46A0
:100EC000FFF7ACFC1EA3D3E90023FFF7C5F9C7F871
:100ED00004D08AB0804689466C46274B07F1200132
:100EE0003B62012204F1140006F077FF04F11800C0
:100EF0003D6206F072FF0222C7E9088904F1200072
:100F000006F06BFF062322463B6242F8103F0023A7
:100F10004FF443510D4800F067FFD7F804D040F676
:100F2000B83006F071FFA3E7144AF4E60221144A30
:100F3000064807F072FBF2E7000000000088CA4094
:100F4000000000000008714094B20008A0A9000849
:100F5000CCA40008BAB20008ACA30008CCB20008C8
:100F60000CAD0008DEB2000805B3000838B3000875
:100F70006AB3000870AA000874B3000820B3000820
:100F800091B30008FF232DE9F0418AB08DF80130BC
:100F90004FF6FF73012600241546ADF80230531CAE
:100FA00001AACDE90423039302AB40F0400006936D
:100FB00004AB0F468DF800000194CDF808D00796D9
:100FC000099608930A480B49836806AAD3F800805B
:100FD00008ABC04748B92A4638460DF1050108F06C
:100FE00011FF30460AB0BDE8F0812046FAE700BFA5
:100FF000CCA400080CAD0008012310B588B00593FF
:101000000DF1070304930223039304ABCDE9061209
:101010008DF80700029306480649836802AA1C68F7
:101020000023A047B0FA80F0400908B010BD00BF0F
:10103000CCA400080CAD00082DE9F04F91B000934E
:1010400002F004030293C2F3C2030133840705468E
:101050000E46DDF868800392059340F0BB81041DC5
:1010600030B1072909D86FF01B0011B0BDE8F08F2F
:1010700001F007063444C6F10806009B4FF0000952
:101080004FF0040A591E4FF0FF334F460193CB46F1
:101090005346CDF810900DB1009A226005980028B3
:1010A00000F3E8809848009A824203D3974882422E
:1010B000C0F0E080039AA4EB050E92074FEA9E0071
:1010C00000F103810F2F00F2B180002D00F00581A7
:1010D00007F140020DEB020C019A0CF8200C0CF801
:1010E000102C049801300490E7E07A285DD84B2852
:1010F0000ED8472859D829282DD8252852D054D879
:1011000020287AD02338D0F1000B4BEB000B74E091
:101110004C382E2849D8DFE800F070484848484845
:101120004848484848484B4848484848484848592B
:10113000484B4B595959704B6D487048184B1848DB
:1011400048827F4B48484B487F0000204FF0000BFF
:101150004FF0040A38E001222A38C0B202FA00F047
:1011600010EA0E0F49D110F0625C2FD110EA020B89
:1011700043D06046013C5444B4FBFAF40AFB04F447
:10118000002D61D0A3EB050CA444B4453FF66BAF32
:10119000002868D1042B47D158F8043B236004236E
:1011A00004342AE0019A013A01924FF0000B24E046
:1011B00011F8010C6C2834D1002011F8023C834650
:1011C0006C2BC5D14FF0080A5346D3E708F1070846
:1011D00028F00708073424F00704F8E802AB35B11B
:1011E00006982044B0423FF63EAFC4E900AB4FF052
:1011F000000B08344FF0080A534611F8010F00287D
:1012000078D0BBF1000F7FF470AF2528F5D14FF0F7
:10121000010B019B013301934FF0040AECE75846A0
:1012200094E700208346A5E7082B02D06FF0150055
:101230001BE708F1070828F00708F8E80223C4E9CB
:10124000002308230834D8E768B9042B02D108F139
:101250000408A4E7082BE9D108F1070828F00708DB
:1012600008F10808EDE7059A013A059258F8042BB1
:10127000009210E7039A900720D54FF0010CA4EBE1
:10128000050E4FEA9E00BEF5007FCFD20F2FCDD8BE
:10129000F5B107F140020DEB020E019AC0B20EF853
:1012A000200C0EF8102CBCF1000F3FF41AAF60F0C8
:1012B0007F000EF8200C09F101090137C5F1080281
:1012C0004FF6DA7E0434069297E74FF0000CDAE727
:1012D000BCF1000F01D00136EFE70298023600287A
:1012E000EBD10098CDE90631FFF79AFBDDE9063135
:1012F0000644E2E7631BB3F5806F97D245B9A6F1C8
:101300000804E018B1E600BFECA10008D8C400084A
:10131000029A9B0828602B709DF81030C2B1EB70C8
:1013200085F80290B9F1000F05D0002208A8C5F198
:10133000010C97420ED14FF0000AC5F101030DF1E7
:10134000200801930DF1300B574512D1601B8CE63C
:101350006B70E5E710F8013B190608D50CEB040E9D
:10136000B64503F07F033FF67EAE04F8013B013241
:10137000DFE7B9F1000F03D098F90020002A17DB4E
:10138000029BD3B11AF80B2004F8012B0022019B19
:1013900018191044B0423FF666AE98F80000009964
:1013A00004F8010B2046039208F02CFD039A144424
:1013B0000AF1010A08F10108C6E798F8002055F87B
:1013C00022300093029B009845F82230FFF728FB5B
:1013D000421CDCE76FF00D0047E600BF2DE9F04F3F
:1013E00097B000AFD7F880B03B62CBF3C0030446A0
:1013F000894690F802A0FA62BB6141B9457800784D
:101400000AEB800020444D4517D8A0EB0409E3788F
:10141000FB61BAF1000F02D01BF0010F16D1FB697E
:1014200053BBFB6A1BB1494620463A6A98474D4672
:1014300028465C37BD46BDE8F08F461C3046FFF7B6
:10144000EFFA0130304409F10109DCE762682378E2
:101450007A62FA6A9900796104EB8301002A40F00C
:1014600001810E464FF000084D4601EB0A094E453A
:101470004CD101EB0A0610E01BF0020FD1D023780B
:101480009A007A61626804EB83017A62FA6A002A40
:1014900077D14D46904601EB0A061BF0050F0CBFB5
:1014A00002230123FB62FB6906EB430A0BF00203F4
:1014B000BB625645BCD016F8021B16F8013C54F826
:1014C0002390994B994502D3984B994536D3BB69E4
:1014D000002B40D0786A06F059FD00283BD0E94641
:1014E0008AB06A46924B53617B6AC2E906314FF477
:1014F000007313848F4B42F8103F00234FF41251B6
:101500008D4800F071FC023DCD46D2E716F8013B54
:10151000F96254F82300FFF783FAD7F88430F96AA8
:1015200001304BB1D7F8883098453EBFD7F88430AA
:1015300023F8180008F10108054498E7BB6923B1B6
:10154000786A06F023FD0028C9D11BF0010F05D1F0
:10155000FB6AED1AADE7BB6A002BAAD04846FFF73D
:101560005FFAD7F8843053B1D7F8883098453FBF39
:10157000D7F88420431C22F8183008F101080544EC
:1015800097E7BAF1000F73D01BF0040673D0D04672
:10159000002607F1480052463B61B96208F032FC70
:1015A000B96A3B6901EB0A02BA62FA69F969520049
:1015B000FA60BA6A02EB41023A610BF00202BA60C9
:1015C0003A69B96A8A4258D162781BF0020F18BF93
:1015D00000217A6208BF4FEA5801B2181BF0010FD0
:1015E000D2B240F09F801BF0040F14BF4046002091
:1015F000BB616270A070E17020463A6A7969FB6A4B
:101600009847051EFFF614AFBB69414623707B6AFD
:101610003A6A6370FB6984F802A0E37007F148003E
:10162000FB6A9847B0F10008C0F2BA807B69A9EB69
:101630000A01C91AFB683A6AC91AD7E90A03984726
:101640000028C0F2AF804FF0000BA84408EB000563
:1016500007F1380AB34571D300213A6A0846FB6A9C
:101660009847E5E656464FF0000807F1380092E744
:101670005646D04696E7B04694E7BA6A12F8021B7F
:1016800012F8015CBA6254F82500274A904202D34E
:10169000264A90421ED3BA6932B1786A7B6006F05E
:1016A00075FC7B6800288BD1BA6802BB08F1280260
:1016B00007F1300C08F10100944407F1580208F1D9
:1016C000020852FA80F00CF8101C5FFA88F800F853
:1016D000105C75E7BA693AB1786A7B6006F056FC2F
:1016E0007B6800287FF46CAF1BF0010F09D006F176
:1016F000280207F13000711C161806F8205CCEB2E3
:101700005EE71BF0040F3FF45BAF08F1280207F11E
:10171000300008F1010102EB000808F8105C5FFAE4
:1017200081F84DE7002063E7ECA10008D8C4000869
:10173000A2B3000804000001C0A900081BF80A3089
:1017400054F8239087F83730D7F884302BB3D7F884
:1017500088309B4521D2D7F8843033F81B80012193
:101760003A6AFB6A07F13700984700281ADB0544FC
:10177000B8F1000F06D14846FFF752F900F1010811
:101780001FFA88F8414648463A6AFB6A984700289B
:1017900008DB05440BF1010B5CE74FF00008DEE7C6
:1017A000454645E6054643E6014B1860704700BFD5
:1017B0003002002080B505460E461746984604F0D4
:1017C000CBFE034608F008FD0446DFF818904246B9
:1017D00049F8003039463046A84754F8090001F06E
:1017E000C9F800BF08000000034A0020536823F036
:1017F00002035360704700BF0040024410B5EFF38E
:101800001184102383F31288BFF36F8F0848036895
:101810003BB9084A516A41F001015162516AC90756
:10182000FCD50133036084F31188BFF36F8F10BDC3
:10183000E40900200008024410B5EFF311841023DE
:1018400083F31288BFF36F8F11490B68A3B901228C
:10185000104BD3E8EF1F002903D1C3E8E02F002885
:10186000F7D104D102210C4A0C4806F0D6FE84F3CD
:101870001188BFF36F8F10BD012B08BF084803F11B
:10188000FF3302BF426A22F0010242620B60EEE7C0
:10189000E4090020E009002056B4000830AA00083E
:1018A0000008024408B502F08FFC044B044A1A6099
:1018B000044AD36A43F00103D36208BDC802002082
:1018C0000048E801000802442DE9F04704460746B5
:1018D0004FF00109DFF8508014B93846BDE8F087B1
:1018E00094FAA4F5B5FA85F509FA05F32E0108EB8B
:1018F00005156FEA030A24EA03042B7B002BEBD0C7
:1019000058F806301B694BB94644736804222846D0
:10191000196807EA0A0706F010FEDDE7284698472F
:101920000028D9D1F0E700BF40AA000830B5002256
:1019300089B00F490F4808F03DFA00220023002427
:10194000CDE906230E230C4DCDE903344FF440724C
:101950002846CDE90144094B0949009404F0AEFB47
:101960000849284608F023F9204609B030BD00BFD9
:1019700089190008F8070020700300208D1C00085A
:10198000100C002097B40008014804F0FFBA00BF13
:101990005C0300202DE9F047804620480F4606F002
:1019A000A8FD0646002832D000252846BDE8F0876D
:1019B000237B83B12368DB680BB1204698476368BB
:1019C00083F8069023681B69CBB96368042220461C
:1019D000196806F0B2FD013610345445E8D3B8F169
:1019E000000FE2D0002DDFD02846FFF76DFF05463F
:1019F000002FF7D00021642008F06FF9F2E72046AD
:101A000098470028E1D009FA06F31D43E3E70546AD
:101A10004FF00109024CDFF80CA0DEE7F8090020C6
:101A200040AA000850AA0008014B53F82000704754
:101A300034AD000808B5034608462BB1044A1360CC
:101A400000F068FC002008BD6FF01500FBE700BF48
:101A50003402002010B5044C237813B9034804F075
:101A600095FA0123237010BD080C00205C030020B0
:101A700010B50446094806F03CFD3CB1084BD3E8DC
:101A8000EF1F0139C3E8E21F002AF8D1054808F02A
:101A90009DF9BDE81040044804F078BAF009002030
:101AA000F4090020F80700205C0300200020014614
:101AB000034BD3E8EF0FC3E8E21F002AF9D17047C8
:101AC000F009002070B5FFF7F1FF0546074C084EFE
:101AD000B44200D370BD63685B792BB123685B6847
:101AE00013B12946204698471034F1E740AA000870
:101AF00050AA000810B5044C0449204606F07FFBAC
:101B0000034B1C6010BD00BF1C03002020AD00086B
:101B1000E809002000230D4A10B513700C4A4FF459
:101B20007A7113600B4A0C481360FFF783FFFFF7CD
:101B3000E1FF0A4B0A4918468B4200D310BD1A1A1E
:101B40005C681211013222711033F5E7090C002094
:101B5000F0090020F40900200585000840AA0008CB
:101B600050AA0008014600220023014806F068BB85
:101B70001C030020014806F001BC00BF1C0300202C
:101B8000024B0146186806F04DBC00BFE809002072
:101B9000014806F082BC00BF1C03002070B5244B36
:101BA0001878002842D0FFF7E5FF054600283AD113
:101BB000204B214C1B68002B12DD08F0F9F80A229B
:101BC0000023FEF713FFD4E90032C01A40F2E933D4
:101BD00061EB0201984271F1000101D3FFF772FF3E
:101BE000D4E9003213F57A7342F10002C4E90032FD
:101BF000BDE87040FFF7CCBF63685B7923B1236811
:101C0000294620461B6898471034B442F4D328462E
:101C1000FFF7B6FF094BD3E8EF1F0139C3E8E21F16
:101C2000002AC5D0F7E7064C064EEEE770BD00BFB0
:101C3000080C0020F0090020F0070020F409002023
:101C400040AA000850AA000870B50D4D297861B966
:101C50000120FFF79FFE0B4C0B4EB44206D3FFF75B
:101C60009DFF0028FBD101232B7070BD63685B7959
:101C70001BB1236820469B6898471034EDE700BFEE
:101C8000090C002040AA000850AA000800212DE9F4
:101C9000F0470846FFF77EFE044658B34FF4FA7843
:101CA0004FF0000908F098FA1B4B1C4A1B581360B0
:101CB00033B11B4B1B68092B02DD1A4804F066F98F
:101CC0000025194FDFF85CA044B12046FFF7FCFD6A
:101CD000044618B94FF0FF384FF0FF39FFF75EFFA9
:101CE000064628B9B5B942464B46504604F082F93B
:101CF0003546E9E74FF0FF384FF0FF39D2E72B6860
:101D00009B691BB100222846114698471035BD42F9
:101D1000F5D3E8E7054DFAE708000000EC090020DC
:101D2000F40900205C03002050AA000840AA000823
:101D300013B5184806F0DDFB174B1B7873B1EFF3B2
:101D40001184102383F31288BFF36F8FFFF726FFF0
:101D500084F31188BFF36F8F02B010BD0F4B1B6867
:101D6000002BF9D050B9002200230D48CDE9002303
:101D700042F21072002304F0D7FEEDE70928EBD100
:101D8000074808F023F8074802B0BDE8104004F007
:101D9000FDB800BFF4090020090C0020EC09002068
:101DA000F80700205C03002010B5064B04461B68B2
:101DB00098472146A060044806F0C1FABDE81040EB
:101DC000FFF7B6BF340200201C030020044A054B75
:101DD0009B1AB1EBD30F34BF52F83100002070478B
:101DE000A0A9000840AA00082DE9F04F8FB0C1F368
:101DF0004A2804AF0D469146B8607B600C0DB8F1DF
:101E0000000F63D000264FF0040B4FF00A0A07F1D1
:101E10001403C7F80C80C7E907667E620193CDF80A
:101E200008B0CDF800A007F11C0332464846F96817
:101E3000FFF7D4FAB0F5006F03461CD36C468AB0A6
:101E4000D9F8041004AB26481A46C3E9050140F24C
:101E5000FF71D9614FF400711984224B42F8103F91
:101E60004FF4125133462048FFF7BEFFA5462C37EA
:101E7000BD46BDE8F08FC0F30A0804F1170018440E
:101E800020F0070080083B60FFF76CFE68F35325E5
:101E9000044690B13B6800F11001C7E9083607F12C
:101EA0001403F961CDE900A3CDF808B048460F4A04
:101EB000F96807F11C03FFF791FA68F353252A46E6
:101EC00020467B68B96806F058FBD0E704F117009C
:101ED00020F007008008FFF745FE0446EDE700BF4D
:101EE000ACB4000804000001F0A900084D8500080A
:101EF0002DE9F04F87B00446DDE9105ADDE912798B
:101F0000934698460391BFB13B46524610210020AC
:101F1000CDF80090CDF81490FFF78EF8B0F5006F73
:101F200006460AD340F2FF730221174A174807B04A
:101F3000BDE8F04F06F07ABB3E4605F1170030448D
:101F400020F007008008FFF70DFE04F007040BF0F7
:101F5000070BE40044EA8B1444EA462444EA05549F
:101F6000054640B13FB13B4652463146CDF8009060
:101F70001030FFF761F8434622462846039907B020
:101F8000BDE8F04F06F0F9BAEBB40008F0A900087C
:101F9000406820B1034BC01A40F3CF0070474FF0A8
:101FA000FF307047A0A900080EB403B503AB53F887
:101FB000042B01460448019300F0F0FF02B05DF8E5
:101FC00004EB03B0704700BF8F860008CA0605D433
:101FD0008B064CBF02490349FFF7E6BF704700BFBD
:101FE00024B5000823B500082DE9F04F89B09B46C1
:101FF000149B9DF84CA00693159B04460593169BD5
:102000000D469046179E0493BAF1000F00F09D8094
:1020100006F48073079306F08EFA06F00209024672
:1020200000283ED020469149FFF7BEFF0746B9F190
:10203000000F08D016F0440F35D12A4620468C49AF
:10204000FFF7B2FF074406F0010353B1894B204666
:1020500053F82A20884B8949002A08BF1A46FFF7FF
:10206000A3FF06F48073002B49D006F00803002B71
:1020700063D1B8F1000F66D0424620468049FFF791
:1020800093FF0546069B3D44002B6DD1049B002B1E
:1020900073D1F30700F1E48031462046FFF796FF45
:1020A000D8E00746C3E7774B18680028CAD0764BBC
:1020B0004FF47A791B684FF03C0CB5FBF3F5B5FB98
:1020C000F0F14FF4616300FB115509FB05F5B1FB1D
:1020D000F3F2B5FBF0FE03FB121100FB1E55B1FB42
:1020E000FCF309FB05F5B5FBF0F50CFB13112046DD
:1020F0000091CDE901E56549FFF756FFA2E706F03B
:102100000803EBB1624B204653F82A206149FFF7E0
:102110004BFF0546B8F1000F05D04246204658490E
:10212000FFF742FF0544BBF1000FABD05A462046F3
:102130005949FFF739FF0544A4E74FF0000BE1E7E9
:1021400006F00805E6E745469CE7BBF1010F069B54
:1021500006D1002B64D1049B002B7BD000250CE022
:10216000002BF8D04D485CE04D48069B22464D4977
:1021700005F0DBFE049B002B68D0DFF82C81DFF834
:102180002C91049F3146102F204628BF10274FF076
:10219000000BFFF71BFF5D4545DC059B49462046CC
:1021A0001A78FFF701FF4FF0010B1BF0070F03D167
:1021B00041462046FFF7F8FE5F453BD9059B49465F
:1021C000204613F80B20FFF7EFFE0BF1010BBBF1DC
:1021D000100FEAD14FF0000B20463549FFF7E4FE1F
:1021E0005A46059B20469A5CA2F120015F2928BF30
:1021F0002E223049FFF7D8FE0BF1010BBBF1100F77
:102200001DD01BF0070F03D141462046FFF7CCFE3F
:102210005F455A46E5D841462046FFF7C5FEEBE745
:102220001F485546A1E741462046FFF7BDFE0BF18A
:10223000010BB0E720462049FFF7B6FEC5E7059B36
:102240003B440593049BDB1B04939AD1BAF1000F26
:102250007FF41FAF204609B0BDE8F04F06F00ABA80
:102260002046054A0549FFF79FFE15E72BB50008F4
:102270002FB5000844AD000826B5000854B5000885
:1022800057B50008000A0020FC09002038B50008F6
:1022900058AD00085BB5000861B50008BD860008B0
:1022A0008F8600089D2F00086EB5000866B50008EF
:1022B00070B5000872B500086CB5000842F20F73E3
:1022C00073B58B4228BF0B46056804460521684656
:1022D0000D4A04F067FC0646636828460B225B68DB
:1022E0000A4906F0B9F963683246694628465B68D0
:1022F00006F0B2F963681B2228465B68044906F0C1
:10230000ABF902B070BD00BF82B6000891B50008FD
:1023100075B5000800210123064A904206D8064AF6
:1023200001B901231360054B186070470121400873
:102330005B00F2E740420F00FC090020000A002089
:10234000F8B50D460446064F4618B44201D128465A
:10235000F8BD14F8011BBB6801485B689847F4E7B7
:102360004CA40008014B036000207047A0AD00089A
:1023700008B50348034A0021121A06F01BFA08BDEB
:1023800070030020100C0020074808B5074A0849D0
:10239000121A06F011FABDE808400648064A074935
:1023A000121A06F009BA00BF000000206C030020DA
:1023B000D8C400080000002000000020D8C4000895
:1023C0002DE9F04706460C4600AF002936D0D1E98A
:1023D0000012E9468AB06D46A3684FF0050AA84688
:1023E0001F48C5E90723C5E9050148F810AF0023D8
:1023F00042464FF421511B48FFF7F6FCD4E9031283
:10240000CD466369AD461848C5E90723C5E905010E
:10241000C5F810A0002342464FF421511148FFF7A0
:10242000E3FCCD46E3690121104A0E4806F0FEF8B0
:10243000A36901210E4A0B4806F0F8F8012E07D1D6
:10244000EFF305830B4A31460648103B06F0EEF8E1
:102450002146304603F004FCBD46BDE8F08700BFCE
:10246000D7B5000810AA000806B6000835B600085F
:1024700044B6000872B6000830BFFFF7FDBF00BFCA
:102480002DE9F04105460B4EDFF82C80324606EB75
:102490000807CC1B2046094907F0B4FCA0194246A6
:1024A0000021083C07F0BBFC2C6707F10800BDE8E1
:1024B000F08100BF000000000400000050AA0008E6
:1024C000054B5A699B689A421FBF044A536843F000
:1024D00080535360704700BFDC0B002000ED00E02C
:1024E00070B52A4C06460D4629482A4906F071F96E
:1024F000A36ADB0647D52648274906F06AF911206A
:10250000A36A1C0704D52248244906F062F9122068
:102510001E4CA36A990712D521491D4806F059F9A6
:10252000636BA26A120609D501211E4A184806F0FB
:102530007DF81EB1A36A23F08003A3621320134C1D
:10254000A36ADE0704D51248174906F042F91420A1
:10255000A36A9C0604D50E48144906F03AF91520E2
:102560000A4B9A6AD10658BF9A6A9A6A920642BF83
:102570005A6A22F400525A629A6A42F0FF029A6240
:1025800000232B7070BD1020BAE700BF00ED00E003
:1025900010AA000885B600089BB60008CEB6000851
:1025A000E1B60008F9B600080FB700082EB700081A
:1025B00010B5244C2449254806F00BF9A36A99016B
:1025C0003ED52248224906F004F91E20A36ADA010A
:1025D00004D51E481F4906F0FCF81F20194CA36AB9
:1025E000DB0204D519481C4906F0F3F80220A36A5F
:1025F0001C0304D51548194906F0EBF82120114CAD
:10260000A36A590304D51148154906F0E2F82220BF
:10261000A36A9A0304D50D48124906F0DAF823207C
:10262000084CA36ADB0304D508480F4906F0D1F82B
:102630002420A36A6FEA03436FEA1343A36210BD29
:102640001D20C3E700ED00E05DB7000810AA0008F8
:1026500075B7000888B70008A2B70008CCB7000813
:10266000EAB700080FB8000829B8000870B5294C6F
:1026700006460D462848294906F0ABF8A36AD90456
:102680003CD52548264906F0A4F81720A36A1A0568
:1026900004D52148234906F09CF818201D4CA36A54
:1026A0009B0512D51C48204906F093F8A36BA26A3B
:1026B000100409D501211D4A174805F0B7FF1EB1C6
:1026C000A36A23F40043A3621920124CA36A59059C
:1026D00004D51148164906F07CF81A20A36ADA05D9
:1026E0000ED50D48134906F074F81B20094A936A69
:1026F00043F47F43936200232B7070BD1620C5E71F
:10270000A36A9B04F2D504480B4906F062F81C202A
:10271000ECE700BF00ED00E010AA000854B8000884
:102720006AB80008CEB600087BB8000894B8000864
:10273000A9B80008C4B800082EB700082DE9F04178
:102740008AB0654B0446D3F80480002600AFC8F376
:10275000080586F31188BFF36F8F02F07F43B3F152
:102760007F4F07D102F00C03082B12D15B495C4864
:1027700006F02FF8002634460023FB71EB1E092BD0
:1027800000F28980DFE803F00A7F827B87878787F2
:10279000878510074CBF0C460126EDE7514950488C
:1027A00006F017F800234C4DFB71EB6A9A0705D52C
:1027B0004D494B4806F00DF8002331E0EB6A002B41
:1027C00001DA4A49F5E7EB6A5B00F5D54849444828
:1027D00005F0FFFF6B69A26943F480736B61BFF37F
:1027E0004F8FBFF36F8F6B6932F8022C23F4807325
:1027F0006B61BFF34F8FBFF36F8F4DF602739A4239
:1028000007D0AB6ADBB26BB30120F91DFFF768FE9E
:1028100037E023680121374A314805F007FF236874
:10282000FA79DAB907F1080504F1200C2A46206884
:102830006168083403C264451546F7D17A6A002EF0
:1028400045D0C2F3080121B96FEA52226FEA422251
:102850007A62184607F10801FFF7B2FD2837BD4636
:10286000BDE8F081AB6A13F47F4F04D00120F91D5D
:10287000FFF7FCFE05E0AB6AB3F5803F9CD3FFF7A2
:1028800097FE0346CCE70020F91DBFE70020F91DA5
:10289000EEE719498DE7194A18F4F87FE8468AB03F
:1028A000174B18BF13466A461649103DC2E9051377
:1028B0004FF400731384144BD56142F8103F00238A
:1028C0004FF411510648FFF78FFAC54674E722F41A
:1028D000FF7222F00102BBE700ED00E00AB9000838
:1028E00010AA000835B900084CB900086DB90008F5
:1028F0007BB900089AB90008B6B90008F1B8000819
:10290000DCB80008DAB9000804000001064B5A6977
:1029100042F010025A615A6942F480625A615A695F
:1029200022F008025A61704700ED00E0EFF30880E2
:10293000EFF3098101B57246FFF700FF01BD00BF4B
:102940000A4880F30888102080F3118808484FF463
:102950000061401880F30988EFF3148002210843D6
:1029600080F31488BFF36F8F00F08EF8502800209A
:10297000100F0020084B9B6883420BD1EFF30583B7
:1029800043B1064B5A6842F080525A605A6A22F4A8
:1029900000425A6203F0E6BDDC0B002000ED00E0CF
:1029A00014498A684FF030001044EFF3098C80E836
:1029B000F01F102080F31288BFF36F8F0E4F4FF07F
:1029C00000664A698A603E60106F0C4C2060506F50
:1029D0000023536780F3118802F1300090E8F01F64
:1029E0008CF3098802F1000004B505F0FAFEBDE899
:1029F00004407047DC0B002004ED00E0280A0020B2
:102A00001EF0040F0CBFEFF30880EFF3098081691B
:102A100011F8021C0229FFD001B5724605F0CEFE66
:102A200001BD00BF00B2002807DB01234109034AB2
:102A300000F01F00834042F82130704700E100E0C1
:102A400000B2002801F10101ACBF00F16040064B6B
:102A50004FEA0111C9B2ABBF00F5614000F00F00B1
:102A600080F800131954704714ED00E0044B054A38
:102A700023F07F039360BFF34F8FBFF36F8F7047D7
:102A80000000000800ED00E008B5FFF7EFFF0B4A7B
:102A9000D2F8883023F47003C2F88830EFF314833F
:102AA00023F0040383F31488BFF36F8FFFF760FCF8
:102AB000FFF76AFC00F046F803F000FA00ED00E0D2
:102AC00042F8203C009B0B4942F81C3C019B21F042
:102AD000010142F8183C029B42F8081C42F8143CE1
:102AE0004FF0807342F8043C0023203A02654367AC
:102AF000704700BFB517000800B50D4B154698602C
:102B0000026F0C4B0E461A60036E83F30B882C4643
:102B100086F309880020044B9847204600210022B4
:102B20000023024C20470000F1870008B517000879
:102B3000DC0B0020280A00201022014B1A6170478C
:102B400000ED00E0002310210348C2180133832B5D
:102B500082F80013F9D1704700E100E008B5EFF307
:102B60000583064A103B02EBC30152F83300496863
:102B70008847BDE80840FFF7A3BC00BFECA40008ED
:102B80001FB5094C094A23460121094800F012F9F2
:102B900000230393074B0121E41A01A80193029437
:102BA00000F012F904B010BD000004200000002065
:102BB000A0AD00087003002010B50C7A0B6804F07B
:102BC0001F0223F01F031A43CB68640923F01F037D
:102BD000054943EA440343F00103C1F89800C1F8F2
:102BE0009C20C1F8A03010BD00ED00E010B50A4BEC
:102BF000D3F89030C3F30723013B984208D9012151
:102C00000346064A064805F011FD6FF0150010BD99
:102C1000FFF7D2FFFBE700BF00ED00E0F1B90008CD
:102C200008AA00082DE9F04F8946144606464FF0E1
:102C30000008514D85B0C84527DAD6F804A0BAF18E
:102C4000000F44D0BAF11F0F17D91AF01F0F14D17B
:102C5000D6F800B01BF01F0F0FD1584605F0DCFD71
:102C600007460AEB0B00013805F0D6FD874210D06D
:102C70006FF01507414A3B4601E04346404A0121B7
:102C8000404805F0D3FC6FF01504204605B0BDE8C0
:102C9000F08F17F1160FEDD0BC42EBDDC5F8987040
:102CA000D5F89C10C5F89870D5F8A03021F01F0118
:102CB00043F01F0BD6E900321A44994202F1FF3A61
:102CC0001DD1D34507D13146F8B205F0AEFD08F16C
:102CD00001080C36AFE73146C5F89870D5F89C303E
:102CE00022F01F0203F01F031343C5F89C30E0B22B
:102CF00005F09BFD10F1160FC5D0441CE7E7C5F8A1
:102D00009870D5F8A020013B23F01F0302F01F02AA
:102D10001343D3453146E0B2C5F8A030E8D005F002
:102D200084FD10F1160FAED0C5F89870D5F89C2030
:102D30009DF808300BF1FF3B62F304038DF8083077
:102D4000D5F8A0309DF808205B0863F347128DF892
:102D50000820D6E900321344009323F01F035B449C
:102D6000A3EB0A03013023F01F036946C0B20393AB
:102D7000FFF73CFFBEE700BF00ED00E03ABA0008F5
:102D800017BA000808AA00080522044BC3F89420CB
:102D9000BFF34F8FBFF36F8F704700BF00ED00E0B0
:102DA000BFF35F8F0022024BC3F89420704700BF2F
:102DB00000ED00E010B5034C2278FFF733FF2070E0
:102DC00010BD00BF0B0C00202DE9F74F294D8A469E
:102DD00006464FF00008AB46274FD0451BDAD6F821
:102DE0000490B9F1000F3FD031680846019105F019
:102DF00013FD0199044609EB0100013805F00CFDB3
:102E000084424FF014021D4B08D002FB08F36FF010
:102E100015024BF8032003B0BDE8F08F14F1160F34
:102E20002C60F8D01978A142F5DD02FB08B0C7F894
:102E30009840C7F89840D7F89C4000F10801007B03
:102E400064F304000871D7F8A0000C79400860F31F
:102E500047140C71D7F89C1021F01F016960D7F856
:102E6000A01021F01F01296108F1010814350C366A
:102E7000B3E700BF2C0A002000ED00E00B0C00209F
:102E8000F0B54149414CD1F890302568C3F3072390
:102E90009D4287B075D80020FFF782FF3C4BC1F8F8
:102EA000C030854216D13B4C01A82570FFF75AFA75
:102EB00000250646384FAE4213D100202378324910
:102EC000D1F89020C2F30722934254DBFFF75CFF56
:102ED00000202FE0616801EB0011FFF76DFE01306B
:102EE000DFE70199280101EB0513DA683A40B2F5F2
:102EF000001F21D0B2F5800F2BD0B2F5801F38D142
:102F00005A689B680958013B22F01F0003440120C6
:102F1000844623F01F0340EA4C10CDE902218DF8CE
:102F2000100002A920780593FFF760FE00281DDA43
:102F30006FF0150007B0F0BD5A689B680958013B57
:102F400022F01F0003444FF0020C012023F01F0366
:102F5000E1E75A689B680958013B22F01F000344CF
:102F60004FF0000C062023F01F03D4E72378013331
:102F7000237001359FE7C1F89830C1F8A0000133F4
:102F80009EE74FF0FF30D5E700ED00E0ACAD000864
:102F9000AAFF44000B0C00200000F0FFF0B587B042
:102FA00007460E4614460021102268461D4606F0CC
:102FB00036FF02238DF80230054B2A46214668462B
:102FC000CDE90476019303F0B1FE07B0F0BD00BF78
:102FD0005D88000808B5024B1B689847002008BDB3
:102FE000400A0020034B044A1860937843F0020320
:102FF00093707047400A00204002002008B506493F
:10300000064821F00701C1F1005202F5802204F0C8
:103010004FFF002008BD00BF57280020440A0020B1
:103020002DE9F041054600264FF001080E4F6B7860
:10303000F4B2A34201D8BDE8F0812B781C442046AD
:1030400000F0CCF868B1204600F0F2F857F83430C0
:103050003BB107EBC40204F01F04516808FA04F006
:1030600098470136E3E700BF500A0020014B23F8E0
:1030700010107047D8020020034678B1B0FA80F2F1
:10308000C2F11F02D2B2064931F91200054AD2F844
:1030900080100B43C2F88030FFF7C4BCFF22F2E778
:1030A000D802002000200244034AD2F8803023EAEC
:1030B0000003C2F88030704700200244032921D861
:1030C000DFE801F0020C10190F4B1A6822EA000227
:1030D0001A605A6822EA00025A6070470A4B1A685E
:1030E0000243F5E7084B5A6802435A601A6822EA1D
:1030F00000021A607047044B1A6802431A605A684B
:1031000010435860704700BF0020024430B5B0B192
:10311000B0FA80F3C3F11F03DBB20B4850F8334021
:103120008C4204D100EBC3056D68954205D044B9CB
:1031300040F8331000EBC3004260002030BDFF2395
:10314000EBE76FF00F00F9E7500A002060B1B0FA2A
:1031500080F3C3F11F03DBB20021044A42F83310AD
:1031600002EBC30251607047FF23F5E7500A0020CD
:10317000C300074AC0F38100183052F8202003F042
:1031800018000F238340134023FA00F0704700BF5C
:103190000020024413B50E4C204606F0D8FC40B97E
:1031A0000C4801210C4A05F038FA6FF0120002B009
:1031B00010BD0223A822CDE90023A3681B681BB120
:1031C000694620469847F2E76FF05700EFE700BFE7
:1031D000ACA20008C8A900088CBA0008012100F0C0
:1031E0001F023F2808B501FA02F2034605D90D482F
:1031F0000D4A05F01BFA002008BD1F280B4B0AD80A
:10320000D86832EA000004D01B699A430CBF012140
:1032100000210846F0E7D86A32EA0000F9D01B6BBB
:10322000F3E700BFC8A90008ABBA000800200244B9
:10323000012100F01F023F2808B501FA02F20346FF
:1032400006D90848084A05F0F1F96FF0150008BDE5
:103250001F28064B03D8DA601A610020F7E7DA620C
:103260001A63FAE7C8A90008ABBA000800200244B4
:1032700038B52F4C2368DA0605D510232D492E4882
:10328000236005F0D6FB23685B0741D5226C2B4CED
:10329000D4F894302546991CC4F894101A8094F8F8
:1032A000A53094F8A4200133DBB29A4284F8A5300B
:1032B0002ED1002384F8A530636E7BB3E36FB4F89E
:1032C00088203BB11E4804F164019847012811D0C1
:1032D00002281ED0B4F88830B4F884209A4218D955
:1032E0000133A4F88830A36F4BB9BDE838401348C8
:1032F00005F0B6BBD4F89830C4F89430F3E7D5E8BD
:10330000EF3F5A1EC5E8E12F0029F8D1012BECDC74
:1033100038BDA36F13B10B4806F058FD4FF6FF738D
:10332000A4F8A6300848BDE8384002F02FBE00BF20
:1033300000800242EBBA0008B0A90008000000209B
:103340006CA4000808000020500000202DE9F04186
:103350000A7943680D46910680461E6809D51B7E92
:103360003BB94F494F4805F064FB6FF01500BDE8CD
:10337000F081012412F0200F4B4F08BF7F2702F08D
:103380001F03092B03EB430204FA03F444EA8364AA
:1033900084BF1E3A44EA0254D6F8B03094BF44EADF
:1033A000025444F000742340C3F31303BB4212D011
:1033B000304605F090FBD6F8B030C4F3130223EA90
:1033C00002033A4A07F01807FA4022401343C6F8AE
:1033D000B03005F067FB2B78092B01D03449C1E7E9
:1033E0006B78042B01D03349BCE72979D8F80470F5
:1033F0006C88386801F01F01C4B143F6FF739C422A
:103400001ED00022DFF8B0E007F1180C3CF8023FB4
:1034100043EA0E039BB29C4209D00132082AF5D13F
:103420002649204805F005FB25499BE7224697F9E8
:103430002A303BB1013BDBB2012B22D92149F0E715
:103440000722F4E70123072701EB4104092903FAC6
:1034500001F343EA816385BF1E3C43EA045343EA18
:10346000045343F00073DC0D04F0040414300159DC
:10347000C3F304539F4021EA070102FA03F30B430D
:103480000351114B9E4208D12B79DB0602BFD6F8BF
:10349000C83043F00103C6F8C830002067E700BF1A
:1034A00064BB0008B0A9000800007F40FFFF0F00C8
:1034B000A4BB0008B9BB000800C0FFFFD3BB0008D5
:1034C0002CBC0008F6BB00080080024273B504461D
:1034D00046683568284605F0FEFA0121606805F067
:1034E000ACFA337E1BB10021606805F0A6FA636870
:1034F0000C4899688368DB687BB90B490B4805F079
:1035000098FA019B1BB90A49084805F092FA284627
:1035100002B0BDE8704005F0C5BA01AA984700287E
:10352000EFDAEAE7ACA2000842BC0008B0A9000844
:103530005CBC00082DE9F347D0F804800546076914
:10354000D8F800603B4C204606F001FB48B93A49E8
:103550003A4805F06EFA6FF01204204602B0BDE85A
:10356000F0874FF6FF73D4F808A0C7F89050A7F87B
:10357000A630D5F80490DAF80030D9F808107BB1FD
:1035800020469847024658B9D9F80C30012B20D86C
:103590002B4AD9F81010936823F47C130B439360E3
:1035A0000021D8F8140001AA05F09BFF041E07DBD8
:1035B000019B00221979186801F020FA041E14DA20
:1035C000A31C12D0012123461E4A1C4805F02EF8E8
:1035D000C3E7D9F80810DAF818300831002BDFD02B
:1035E000204698470028D3D0DAE7B36823F0204379
:1035F00023F03F03B360B36823F0104323F03F038D
:1036000043F08053B360142006F07BFAD8F80430FE
:1036100003B198472846FFF759FFF36823F47E6308
:10362000F360BB6C1BB907F1400002F0AFFC002453
:1036300093E700BFACA2000870BC0008B0A9000866
:10364000008302428FBC00082DE9F04F076987B064
:1036500007F1400306460D4603934FF0FF324FF04B
:10366000FF33039802F0C6FC73683469D3F8008016
:10367000AB68C4F894306F683846C4F8A070FDF7A2
:10368000D7F9002384F8A40084F8A53027B9994914
:10369000994805F0CEF907E010280EDD102301212E
:1036A000964A954804F0C2FF6FF01504039802F0A3
:1036B0006DFC204607B0BDE8F08F7268106892F983
:1036C0002DC02C32634502DB13D18D49E0E752F85F
:1036D000041F95F810E0BEEBD14F2AD15FFA81F9B3
:1036E000B9F1FF0FC1F30427C1F3423BC1F3024A12
:1036F00021D14FF000097368D3F800E004933369D7
:103700000EF1300BD3F8A00068BB94F8A4202B680E
:10371000520013B19B8903FB0222EB68934264D2EF
:10372000012100927448774A04F08AFF6FF00B047D
:10373000BCE70133C6E750F80930FB400BEA03034E
:103740009A45D6D005F0C7F973680BFA07FB1968DC
:103750000AFA07FA51F8093023EA0B0343EA0A038D
:1037600041F80930C5E790FAA0F20123B2FA82F2DB
:103770009340092A02EB4201059343EA8263049ACB
:1037800088BF1E3992F92B208ABF43EA015343EACE
:10379000015343F00073012A21D15B4A5FFA89FA91
:1037A00052F82A10C3F384634FEA911C0CF00C0CFE
:1037B0005BF80C2001F01F0117461F228A408B4046
:1037C00027EA02021A434BF80C20504ADEF8303048
:1037D00052F82A2023F00F031343CEF83030059B14
:1037E00009F1010920EA03008EE771686A7C086824
:1037F000002A51D1036923F4806323F0030303619A
:10380000AB7C13B13046FFF761FE404605F04AF944
:103810001023AC46C8F80030D8F8043004F1640630
:1038200043F00403C8F80430BCE80F000FC6DCF80E
:1038300000303360002626662B68002B56D00FCB55
:1038400004F1780585E80F006566A4F88860002813
:103850004CD0D4E8EF3FC4E8E26F002AF9D1A06F62
:10386000642263304FF0000346F10001FDF7BEF81B
:103870000022CDE90001002304F1080003F054F90F
:103880004FF0FF324FF0FF3304F1500002F0B2FB73
:1038900000B12066246E09E7082A25D8036923F4BD
:1038A000806323F0030343F00103036191F92C309B
:1038B000012BA5D1164B53F82290164B53F822A09A
:1038C000036903F01C039A4504D1036903F4F07300
:1038D000994595D005F0FFF8036949EA0A0923F4F0
:1038E000FE7343EA09038AE70B49D1E6204605F057
:1038F000B7F8C5E7ADBC0008B0A90008C2BC000815
:10390000EBBC0008FEBC0008CCAE00088CAE000882
:1039100068AE000844AE000823BD00082DE9F04F52
:1039200087B00C220B79D0F8108003F01F0302FB44
:103930000383002283F8A7200546446808790E46D1
:1039400000F01F000F2802AF0CD903469E4A012148
:103950009E4804F06BFE6FF0150420461437BD46F8
:10396000BDE8F08F4B78062B16D8DFE803F013156F
:1039700015151719040001233B713378A3F10902CF
:103980000B2A39D8DFE802F03A3C380E382E3830AE
:10399000383234360323EFE78D4AD8E70223EBE7CA
:1039A0000023E9E7022273887A71002B61D0C3F308
:1039B0000D019B0B032B25D06C468AB02B6802AA05
:1039C0008448D161C2E905034FF400731384824B2C
:1039D00042F8103F00234FF411517C48FEF704FADF
:1039E000A546B8E70322DEE70422DCE70522DAE792
:1039F0000622D8E70722D6E7784AA8E70022D2E7CE
:103A00000122D0E70929D7D994F82130012B1CD104
:103A1000B1F5965FD0D8228B94F82130C24002F0E5
:103A200001025200022BBA7125D86D484A0150F8A4
:103A3000233003EB0113B3EB411F59D3B3FBF2F374
:103A4000B3F5006F56D29BB21CE0002BE3D1B1F569
:103A5000166FE0D96C468AB0286802AAD1614FF48B
:103A600000715C4D11845C49C2E9055042F8101F99
:103A7000B1E70A21CFE701215A4A544804F0D6FDA4
:103A80004FF6EA733B81012396F804A0628B0AF09B
:103A90001F0A03FA0AF31A4214BF01220022BA7263
:103AA000A28B29691A4214BF01220022FA72E28B0A
:103AB00091F860411A4214BF012300233B73002395
:103AC000DCB9082B1ED101F19C0999F80B300BB918
:103AD000A24507D00A224946381D06F0A8F9002859
:103AE00000F02E810134102C09F10C09EDD132E7E0
:103AF0000123C7E740F2FF73C4E7E20702D5640879
:103B00000133DDE70122BB739A4098F8603113431B
:103B100088F8603101230C229C21FB7333793C1D12
:103B200003F01F0312FB031303CC48F803002068C3
:103B300008EB030CCCF80410CCF8080096F80490BD
:103B4000D5F804A009F01F0902FB098393F8A2002D
:103B500093F8A330C0020BB140F0600002FB098271
:103B600092F8A4300BB140F4C0700C2303FB098918
:103B700099F89C3099F89D20DB0002F0070203F0D1
:103B80001803134340F6FF1299F8A610034300925E
:103B900028460222193105F07EF8044678B999F8D2
:103BA0009C209AF82430022A20D14FF480712846B4
:103BB00000911B02012105F06EF80446B0B10A49DC
:103BC000024804F0B5FFC8E64FBD0008A8A90008E8
:103BD00064BD00089ABD00080400000182BD000811
:103BE0000CAF0008BABD0008D2BD00080C22337922
:103BF000574803F01F0302FB038393F89E2003F151
:103C00009C01B3F8A030897A520502F46002C3F334
:103C10000A030090134328460322213105F03BF8A4
:103C2000044608B14B49CBE7F3792969DB0737D55F
:103C3000337A0F2B08D90121474A484804F0F6FC93
:103C40006FF015044649BBE7C3F3C00201EB420223
:103C500003F0070382F85C31737A284682F85D31FD
:103C600091F85C2191F85E311202DB0203F460539B
:103C700002F4E0621A4391F85D3103F00F031A4336
:103C800091F85F3143F6FF711B0103F0F00313431A
:103C900003220091114604F0FEFF04460028D1D112
:103CA0004FF4787296F80490737909F01F0909F1BE
:103CB00009095B01D5F810A096F806B013400092F0
:103CC00049460222284604F0E6FF044658BB1F235B
:103CD00002220093494628460BEA030304F0DBFF67
:103CE000044600BB0C234FF4E0423179284601F032
:103CF0001F0103FB01AA9AF8A63009311B030092A9
:103D00001340022204F0C7FF044660B94FF4004399
:103D10003179022201F01F0128460093093104F095
:103D2000BAFF044608B10F494AE70123327902F08D
:103D30001F029340B8F874211343A8F874310CE6BD
:103D40000C2303FB048494F8A630BB73E2E600BFA7
:103D5000FF07E000F1BD000809BE0008A8A900089F
:103D600031BE000852BE00082DE9F04FD0F810A077
:103D700087B00AF1480307460D4603934FF0FF3220
:103D80004FF0FF330AF1480002F034F97B682A7CD7
:103D900093F823303C699A4206D09849984804F039
:103DA000C7FE6FF015051EE0D5F80480B8F1000FCE
:103DB00001D19449F2E76B7C0BB19349EEE74046A1
:103DC000FCF736FE2B68800013B19B8903FB0000D3
:103DD000EB68834212D2012100908C4A884804F09B
:103DE0002FFC6FF00B058A49854804F0A1FE03986B
:103DF00004F09CFE284607B0BDE8F08F002328FAA7
:103E000003F616F0010610D0B4F87421DA40D10799
:103E100005D401217F4A7A4804F008FCC1E70F2B42
:103E200001D97D49BAE70133E9E70133202BE6D117
:103E3000A846D5F808E004F16C0CC4F878E1B8E8BD
:103E40000F00ACE80F00D8F80030CCF80030A666C0
:103E50002B6833B9C4F87CE104F5B27004F066FE57
:103E600023E004F180050FCB04F1080885E80F007A
:103E7000E566A4F890600028ECD0D8E8EF3FC8E8E9
:103E8000E26F002AF9D1D4F88000642263304FF049
:103E9000000346F10001FCF7A9FD0022CDE9000175
:103EA000002308F1080002F03FFE002200230AF17F
:103EB000580002F09FF80546002898D03C6904F5A8
:103EC000B2794FF0FF324FF0FF33484602F092F8DC
:103ED0004FF6FF7606F1010B1FFA8BF6102E236FBB
:103EE0004FD09BB233414CD09BB2DA0721D500238F
:103EF00042F20F78059301220021384605AB04F009
:103F000027FE054658B9059B1B0616D508F1FF3854
:103F10001FFA88F8B8F1000FEDD16FF073053F4933
:103F2000374804F005FEA56604F1580004F0FEFDD4
:103F30005DE70136B6B25B08D7E7032202213846B7
:103F4000D4F8783104F004FE054608B13449E7E7B7
:103F500001460122384605AB04F0FAFD054640B99A
:103F6000059B03F00F039E4205D0236F1FFA8BF6CB
:103F7000B7E72C49D4E7D4F878310433C4F8783162
:103F8000A8E7E36EBBB3D4F88430B4F890203BB11B
:103F9000384604F16C019847012813D0022823D039
:103FA000B4F89030B4F88C209A421DD90133A4F8AB
:103FB0009030D4F8803053B9D4F878314846C4F8FA
:103FC0007C314BE7D4F87C31C4F87831F1E704F167
:103FD0000803D3E8EF2F511EC3E8E01F0028F8D1F3
:103FE000012A7FF762AFE7E7D4F880301BB104F114
:103FF000100005F0EBFE04F158002FE76BBE00083F
:10400000A8A900087EBE000892BE0008B0BE000845
:1040100006BF0008D5BE0008ECBE000821BF00089E
:1040200045BF00085BBF000810B586B06B460C4A60
:10403000044651681068002203C3082303936B44AD
:1040400004930123606804A9CDF808D0059304F017
:1040500073FD10B9204604F092FE06B010BD00BFFB
:1040600075BF00082DE9F04385B00669446802AFCA
:10407000054630600122002106F5B27005F085FD8D
:10408000206805F064FDD8B923686C4688B01B68C9
:1040900002AA4A49C2E905134FF400739383484BBF
:1040A00042F8103F00234FF4E2514648FDF79CFED2
:1040B000A5466FF0120420460C37BD46BDE8F083DC
:1040C000E06818B105F043FD0028DDD02846D5F89A
:1040D0000480FFF7A9FF04460028ECD17860032292
:1040E000072128463B1DD5F8109004F031FD044609
:1040F0000028E0D17B680322C3F3800389F8803174
:104100007860072128463B1DD5F8109004F020FD6B
:1041100004460028CFD17B680122C3F3801389F8BD
:1041200081317860052128463B1DD5F8049004F0C4
:104130000FFD04460028BED199F82230002B35D15E
:104140007B68042B02D0063B012BB2D84FF400430E
:104150000222009309210023284604F09CFD044616
:104160000028A8D13C2298F8203001219B00009221
:1041700013402846022204F08EFD044600289AD1FE
:10418000C02298F8213001219B010092134028465B
:10419000022204F080FD044600288CD1336D002BF0
:1041A00089D106F1480004F0C1FC84E7012B80D1DD
:1041B0007B68142BCAD0163BC6E700BF7EBF000841
:1041C00003000001A8A90008074B1A6822F00402A6
:1041D0001A605A68D207FCD40222DA601A6842F0E8
:1041E00001021A60704700BF0004034010B5314B54
:1041F00018680B88C3F30B03102B33D813B96FF077
:1042000085002CE0013B0F2BF9D801A454F823F0D2
:10421000614200089142000897420008514200089C
:10422000FF410008FF4100089D420008534200087A
:104230008D420008534200088D4200085342000896
:104240005342000861420008A14200086142000890
:10425000194810600B68B3F5805F23D2002010BDB1
:104260001648F6E7882BF4D003F67473C3F30B03F8
:104270001C2BC4D8012404FA03F303F0013424F402
:104280008034002CE5D10E4C2342B8D04008E0E742
:104290004FF40040DDE74FF4FA40DAE70948D8E789
:1042A0000948D6E7C3F313330133B0FBF3F01060D2
:1042B000D4E700BFC802002000127A00001C4E0E96
:1042C00000001110006CDC020068890910B56C4C0C
:1042D000E369236A6B4B1A6942F030021A615A692A
:1042E0001007FCD5684801F00BFC236843F48023D9
:1042F0002360236843F480332360614C236899036F
:10430000FCD5FDF77BFAD4F8F03023F0180343F026
:104310001003C4F8F030D4F8F03043F00103C4F8CF
:10432000F030574CD4F8F0309A07FBD5FDF784FAFB
:10433000D4F8F03043F08063C4F8F030D4F8F030B3
:104340001B01FBD5236843F4805323604C4B1A6850
:104350009404FCD5DA6902F01802182A17D11A68F9
:10436000900707D41A6842F001021A60444A1368A1
:104370009907FCD5424BDA6922F00302DA61DA6967
:1043800012F0180FFBD11A6A22F00F021A623C4B8E
:104390001A6822F080721A609A6A42F003029A62E6
:1043A0009A6A22F47C5242F400729A629A6A22F06B
:1043B0000C0242F004029A629A6A22F020029A6287
:1043C0005A6B22F4FF7222F0010242F077025A6324
:1043D0009A6A22F010029A625A6B22F47E4242F4E8
:1043E00000725A639A6A42F480329A625A6B22F4DB
:1043F000FE0242F400325A639A6A42F400329A6230
:104400005A6B22F0FE4242F080725A639A6A42F47A
:1044100080229A621A6842F080721A601A689201C9
:10442000FCD5DA6A22F00302DA621A6B22F0030288
:104430001A631A6A22F00F021A621A6A22F07002D4
:1044400042F040021A621A6A22F4E0621A621A6AA0
:1044500022F4E04242F480421A62DA6942F0030236
:10446000DA61074BDA6902F01802182AFAD1DA6920
:10447000002022F40042DA61044B034A1A6010BDA6
:10448000000C024400080244001C4E0EC80200202A
:1044900008B5074805F05BFB38B10648FEF7A2FDFA
:1044A0000448FDF781F9002008BD6FF01200FBE71A
:1044B0004CA40008B94400080A2838B50446074D42
:1044C00004D1AB680D2128465B689847AB68034868
:1044D0005B68E1B29847204638BD00BF4CA4000895
:1044E0002DE9F843D0F804801746D0F81090D8F89A
:1044F00008000D461E4604F079FAB7F5001F044681
:1045000016D12846D8F80840FEF732FE84420CD176
:10451000294604F06BFA0446FEF7C6FD2046FEF776
:1045200015FE00212046FEF7C9FD0020BDE8F883F6
:10453000B7F5800F20D0B6F1806F19D0B6F1C06FFB
:1045400018D0B6F1007F1AD102264A4620460F49FC
:10455000FEF7DCFDB0B92846D8F8081004F04BFA95
:1045600020463146FEF7AAFD2046FEF785FDDCE732
:104570000126EAE70326E8E76FF08500D6E76FF04B
:104580001500D3E76FF00F00D0E700BF0F910008D0
:1045900038B50369044658600A4D284605F0D7FA35
:1045A00060B1AB6861681B680C3123B1284698473D
:1045B00000EAE07038BD6FF05700F9E76FF01200C5
:1045C000F8E700BFACA2000808B50121034A04487F
:1045D00004F023F86FF0040008BD00BF42C00008DB
:1045E000D8A9000898B542680369D26800AF83F87B
:1045F0004E1029B9136823F440131360BD4698BDCB
:104600006C468AB06A4603680848D161C2E905036E
:104610004FF400731384064B42F8103F00234FF40D
:1046200011510448FDF7E0FBA546E7E760C000082C
:1046300004000001D8A90008F7B500224368044629
:1046400006691C480F46DD68596883680192DB687B
:104650004BB90121184A194803F0DFFF6FF0040439
:10466000204603B0F0BD01AA98470028F1DB37626D
:1046700006F110074FF0FF324FF0FF33384601F0DC
:10468000B9FC2B68204623F001032B6096F84E10EE
:10469000FFF7A8FF2046019900F004F996F84D3085
:1046A00004461BB12B6843F001032B60384601F030
:1046B0006DFCD5E7ACA2000874C00008D8A90008BA
:1046C00070B50446466805694FF0FF320021284660
:1046D00005F05BFA336820469847002385F84C3094
:1046E00085F84E30012205F11000114605F04DFA13
:1046F000224805F02CFA40B90121214A214803F053
:104700008CFF6FF01204204670BD204600F048F880
:1047100033691D4A934224D018D81C4A934222D0B0
:104720001B4A934221D001211A4A164803F075FF13
:104730000021204641F01001FFF77EFF041E18DA29
:104740000121154A0F4803F068FFDCE7134A934242
:104750000DD002F5C31202F520629342E3D10A2183
:10476000E7E70621E5E70221E3E70421E1E7082185
:10477000DFE70123002485F84C30C4E7ACA2000831
:1047800070BC0008D8A9000840420F00A0860100B4
:10479000801A0600A2C00008BDC0000840E1330036
:1047A00037B545680021686901AA04F09AFE041E25
:1047B00007DB019B00221979186800F01FF9041E1D
:1047C00008DA012123460C4A0C4803F02FFF20464B
:1047D00003B030BD0A48696883681B683BB9012192
:1047E000084A064803F019FF6FF00404EFE7984702
:1047F00004460028EBD0F2E7F1C00008E0A9000869
:10480000ACA200080FC1000830B504694068C06858
:104810004568ED0107D543684A6823F47F0343EAFE
:104820000243436030BD246A1D4D14F0010F4468FB
:104830002AD044F40064446044682C40234343601D
:104840000B7A9C0728D43AB313785B0724D44368C7
:1048500043F0807343604368039A23F0007343601E
:10486000436823F480631343436043684A6823F436
:104870007F0343EA02434360036843F0010303609C
:10488000436843F40053CCE724F400644460446874
:104890002C4044EA4303D2E7436823F08073D9E70E
:1048A00000FCFFFF2DE9F84F0C4600254768D0F8C3
:1048B0001090D7F80C80474A474BF969A9420FD8A6
:1048C000D9F82030C3F34203012B45D0022B72D01C
:1048D000424A4348012103F0A0FE6FF0150028E092
:1048E0000C266E43D7F818B03E480BEB060ADAF8F0
:1048F0000410814226D01ED83B48814224D03B4838
:10490000814223D00121364803F087FE0021314A3D
:10491000314BD9F82000C0F34200B0EB510F19D150
:104920005BF80610A14215D1DAF808300020C8F86B
:104930001030BDE8F88F2E48814209D09942E1D16C
:104940000A21E6E70621E4E70221E2E70421E0E7A5
:104950000821DEE70135B0E741F25C2C4FF47A67BD
:1049600040F2E2464FF4FA750221224B4A1EB4FB94
:10497000F2F2B3FBF2F2B7FBF2F00138FF2823D8D2
:10498000BCFBF2FE0EF1FF3EBEF1FF0F1CD8B5FBE3
:10499000F2F9B9F10F0F17D8B6FBF2F2013A0F2A6C
:1049A00012D802394EEA094343EA017343EA02533B
:1049B00043EA0023BAE740F2145C4FF416774FF451
:1049C000FA7640F27715CFE701311129CED10A4AA4
:1049D0007FE700BFA2C00008404B4C003FC1000869
:1049E000E8A9000840420F00A0860100801A0600D6
:1049F00040E1330000CA9A3BBAC100082DE9F047F4
:104A0000044600251D4F00EBC106B44201D1002031
:104A100014E02068C30600F01F0911D4656845F052
:104A20002005C0F3481AC0F34420192823D857F8AA
:104A30002080B8F1000F0DD16FF01200BDE8F087B3
:104A4000B9F1100F04D0B9F1110FEAD16568E8E7A8
:104A50003025E6E7404605F07AF80028ECD04B46D2
:104A60002A4640460AF00F0104F067FB002804F1D3
:104A70000804CADAE2E76FF01500DFE73CB000088F
:104A80000129034608461AD002290BD0C9B91B6870
:104A90000D4A934217D002F180529B1A18BF01238E
:104AA000180370471868084B98420AD003F18053E6
:104AB000984214BF4FF440504FF40050704700200C
:104AC00070474FF4005070470024004470B5002632
:104AD0001D46094B6C0833F812203346FBF786FF5E
:104AE000090241EA1061000220182A46334641F1CA
:104AF0000001FBF77BFF70BD74B200082DE9F047A1
:104B000082B0436880460C461D68026900AF0029E8
:104B100044D01068D9688368DB686BB13A1D984748
:104B2000061E0CDA0121354A354803F076FD304681
:104B30000837BD46BDE8F0876FF05706F2E7314B06
:104B40009D4203D003F180539D4249D10026D7F8FE
:104B50000490DFF8B4A0234648460021B2B2FFF724
:104B6000B5FFA0F5407050451BD90136102EF2D18B
:104B70006D468AB0D8F800306A462449D461C2E94B
:104B800005134FF400731384214B42F8103F0023A8
:104B90004FF411511A48FDF727F9AD466FF015068D
:104BA000C5E7EB6A484623F00F033343EB62194B2A
:104BB00033F8162000231946FBF718FF090241EAD3
:104BC000106163080002C01822464FF0000341F153
:104BD0000001FBF70BFFC0F31300E8600026A6E717
:104BE0002B6823F400432B607B6803EB5403B3FB77
:104BF000F4F30F2BBCD99BB2EB60EFE774C0000855
:104C000038AA000800240044FFFC0F00FEC1000881
:104C10000400000174B200082DE9F84307460D793D
:104C200040683B69012D0E460468D3F8048017D014
:104C3000AB1ED3F1000949EB03094FEA89297179C9
:104C4000FFF71EFFB2790346022A0CD0042A0ED0C9
:104C5000ADB1033D012D0CD86FF08500BDE8F883A0
:104C60004FF4C069EBE73DB94FF0805008E0002DEC
:104C7000F2D14FF4805003E0033D012DECD9002028
:104C8000B3F5805F00F08580B3F5405F00F083806E
:104C9000002B0CBF012303239942DDD1494604F0C8
:104CA0006BFC8242D8D1F379002B5DD0012B74D1FB
:104CB0003B4B9C4258D003F180539C4254D0394B1B
:104CC0009C4251D003F180539C424DD0364B9C42C4
:104CD0004AD003F180539C4246D0344B9C4243D08F
:104CE00003F180539C423FD0314B9C423CD0B4F105
:104CF000502F39D003F5A0539C4235D003F1805397
:104D00009C4231D02B4B9C422ED003F180539C42CD
:104D10002AD0294B9C4227D003F180539C4223D0B8
:104D2000264B9C4220D003F180539C421CD0244B44
:104D30009C4219D003F180539C4215D0214B9C42D8
:104D400012D003F180539C420ED01F4B9C420BD0DB
:104D500003F180539C4207D01C4B9C4204D003F1CA
:104D600080539C427FF478AF2368314623F00103DF
:104D70003846236004F0B6FC0028FFF66DAF2368C8
:104D800043F00103236096E8030088E80300002055
:104D900064E7002380E702237EE7032B88D05BE7EC
:104DA000003801400044004000480040004C0040F2
:104DB0000050004000780040007C0040008000402F
:104DC00000680040006C0040008400400024004463
:104DD0002DE9F04182B00646456804698B4800AF72
:104DE000206004F0B4FE38B9894A0121894803F0F3
:104DF00014FC6FF012040BE02068E96883681B68FC
:104E00005BB90121844A834803F007FC6FF0570423
:104E100020460837BD46BDE8F08198470446E8B90A
:104E20000021286A3A1D04F05CFB041EF0DB7B685D
:104E3000002219791868FFF7E1FD041EE8DB7568A8
:104E400033692C68D3F80480236823F001032360BE
:104E5000686804F07CFE48B9704AC6E701216E4AD2
:104E60006C4803F0DAFB002CD2DBD9E7D5E901016D
:104E70008368DB6803B1984754E8003F43F00C03B4
:104E800044E80032002AF7D14146304604F02AFCBB
:104E9000002802DA6FF01504BAE72B7D1BB1A36876
:104EA00043F00803A3606B7D1BB1636843F40043C8
:104EB0006360AB7D1BB1636843F480336360EB7D5B
:104EC0001BB1636843F4003363602B7E002B00F05A
:104ED0008A80534B9C426CD003F180539C4268D033
:104EE000504B9C4265D003F180539C4261D04E4BA5
:104EF0009C425ED003F180539C425AD04B4B9C4263
:104F000057D003F180539C4253D0494B9C4250D020
:104F1000B4F1502F4DD003F5A0539C4249D003F17A
:104F200080539C4245D0434B9C4242D003F1805376
:104F30009C423ED0404B9C423BD003F180539C426C
:104F400037D03E4B9C4234D003F180539C4230D04A
:104F50003B4B9C422DD003F180539C4229D0394BCE
:104F60009C4226D003F180539C4222D0364B9C4277
:104F70001FD003F180539C421BD0344B9C4218D06D
:104F800003F180539C4214D06C4688B06A46336863
:104F90002F49C2E905134FF4007393832D4B42F858
:104FA000103F00234FF4E2511A48FCF71DFFA546BD
:104FB00070E773681A68936843F4804393602368CA
:104FC0006A7E23F0787343EA425323602368AA7E03
:104FD00023F4F81343EA02432360EB7E1BB1A3687A
:104FE00043F40043A3602B7F1BB1236843F00053BD
:104FF0002360236843F001032360E3699A02FCD530
:10500000E3695B02FCD5002402E700BFACA2000804
:1050100070BC000838AA000815C2000835C2000894
:10502000003801400044004000480040004C00406F
:105030000050004000780040007C004000800040AC
:1050400000680040006C00400084004000240044E0
:1050500050C20008030000012DE9F84F804600AF60
:10506000D0F8109044684B4D284604F070FD50B9BC
:105070000121494A494803F0D0FA6FF01204204652
:10508000BD46BDE8F88F2369012B12D9AB68616971
:105090009B69083153B1002228469847041E08DA5C
:1050A00001213F4A3D4803F0B8FAE8E76FF05704A2
:1050B000F6E74FF0010AD9F80860D9E9023203EBAC
:1050C000C2039E4225D3484604F0F9FC0121D8F8DA
:1050D000040004F0CBFC041E02DA14F1860FCED1DA
:1050E000D8F804600021304604F0C0FC041E0DDB3B
:1050F000AB6871691B68002B48D026489847044666
:1051000020B10121274A254803F087FA04EAE47414
:10511000B5E7306804F01BFD0346B0B932686C4651
:105120008AB0106831796A46D1614FF400711E4D22
:1051300011841E49C2E9055042F8101F4FF4115165
:105140001648FCF751FEA54697E730683179F38899
:105150000469DA07D4F800E054BF43F4B01383F4D1
:10516000D01323F480120AFA01FBDB074CBF4BEA91
:105170000E032EEA0B03D0F808C02360DCF80030E1
:105180009847041EFFF67BAF083696E76FF057048A
:10519000B7E700BFACA2000870BC000820AA000856
:1051A0009DC20008E3C20008BFC20008040000015D
:1051B0002DE9F04F8FB000AFBB60436881460E46CB
:1051C00092460469D3F80080FB601AB9BB68002BD3
:1051D00000F07183B388980400F1E2804FF0FF3251
:1051E0004FF0FF3304F1100000F004FF6660D9F8BF
:1051F0001030DFF8B8C207F118057B60BCE80F007B
:105200000FC59CE80F0085E80F007A68D9F804B054
:105210001268DBF800509642B38840F0CD80190543
:1052200008D5BAF1000F00F0C4804FF4C121284620
:1052300004F0FDFAB3885146C3F34513082B0CBFA5
:10524000012302232046BA6804F016FBD8F8005068
:10525000D8F80C3005F4006503F4C0231D43FB6847
:105260001B7EFBB1B388DA071CD4002D40F0A4816B
:105270005146304604F0D8FBB0F1000AC0F2A480D9
:105280003046B96804F0D0FB0028C0F21283824592
:10529000B8BF8246D8F804301B0C1B0443EA0A034B
:1052A000C8F80430D8F8003043F00103C8F80030E3
:1052B000D8F80C305B0200F18C81D9F810603068AE
:1052C000002840F092812368FA689B881668D80706
:1052D00000F1C981137E002B00F0A5813368F268CC
:1052E00003F4006A02F4C0234AEA030ABAF5C12FA4
:1052F00040F088817369990700F19081FB681E680E
:10530000736913F4787300F03E826D468AB06A4682
:10531000674951616749C2E906134FF4007313846A
:10532000654B42F8103F00234FF411516348FCF7DE
:105330005BFD6FF0040AAD4673695B0642BFB3695B
:1053400043F04003B361D9F80480D9F81060D8F86D
:1053500000506B69DB0700F17C82EB68580200F1BA
:105360007B826B69990542BFAB6943F40073AB6103
:1053700098F818102B68EA68002900F08882AB6959
:1053800043F01003AB61AB6943F04003AB61AB6921
:1053900043F00803AB616B681B0C1B046B607FE27E
:1053A000A369002B7FF41AAF63689E427FF416AFA7
:1053B0001DE74FF4C0213AE7C3F34512082A13D082
:1053C000102A11D06FF0850A236813B19B889B04C3
:1053D00005D40023636004F1100000F0D7FD5046AF
:1053E0003C37BD46BDE8F08F1A0448BFEB6834482F
:1053F00042BF23F4601343F40023EB60DBF810207A
:105400008368012ADBF81410DB682FD908313BB917
:105410002C4A0121294803F000F96FF0040AD3E770
:1054200007F1140298470028F2DB012379693068FC
:1054300021FA03F2824222D90133092BF8D16D46B9
:105440008AB06A46204BC2E905304B08D361052378
:10545000090A116242F8103F00234FF42151174806
:10546000FCF7C2FC6FF0150AAD46ADE70BB9174A61
:10547000CFE707F1140298470028D6DAF7E72A6841
:1054800007F1380122F001022A60AA6801EB8303C8
:1054900053F8243C22F070421343AB60B3889B075F
:1054A00016D4EB6823F0007315E000BF50AA000883
:1054B00085C3000890C300080400000120AA00086A
:1054C000ACA20008FEC2000856C300082AC30008A8
:1054D000EB6843F00073EB60B38813F0040FEB68E4
:1054E00014BF43F0807323F08073EB60B18811F434
:1054F000006104D0BAF1000F52D04FF4C121284608
:1055000004F095F9B38813F0100FEB6814BF43F45F
:10551000000323F40003EB60AB6823F48003AB606B
:10552000B268B388002A3ED0D80706D4EB68D90009
:105530005EBF2B6843F480532B60EB6823F010535D
:1055400043F08063EB60B38813F0010FEB6814BF86
:1055500023F4800343F48003EB60B388C3F3451363
:10556000082BAB6823F01F030CBF43F0070343F085
:105570000F03AB60EB68DBF80C2023F00F03134341
:10558000EB60EB68DBF8082023F0F00343EA02133A
:10559000EB60AB6823F4F073AB607B681E6049E698
:1055A0004FF4C021ABE713F0010FEB6823F0105369
:1055B00008BF43F00053C5E7B5F5C12F0CBF5146F6
:1055C000B968304604F030FA00288246BFF662AE71
:1055D000FAE6D8F8003043F40073C8F80030D8F881
:1055E00000309E053FF569AEF9E78368002B3FF474
:1055F0006AAE0121083004F04EFA3368186904F0ED
:1056000080FA60E67369DA0703D52146304604F074
:10561000B9F9BAF5C02F7FF46DAE6FE6214630467A
:1056200004F067F96AE63368F26803F4006A02F48A
:10563000C0234AEA030ABAF5C02F08D1FB681868EC
:105640004369DE07FCD5214604F09CF956E67369F0
:105650009B07FCD52146304604F04BF9BAF5C12F23
:105660003FF44CAEEAE77269910769D5A26C002A53
:1056700066D0C3F34513082B626C4CD1137886F8BF
:105680002030A36C9BB1013BA364002B3DD1636B25
:1056900008336363A36B013BA363012304F1480256
:1056A00004F1380104F1340004F0D0F86064736947
:1056B000DA077FF523AEE36C002B3FF41FAE226DBB
:1056C000002A3FF41BAE22689288C2F34512082AD2
:1056D00042D196F830201A70236D002B3FF40EAEA5
:1056E000013B2365002B30D1E36B0833E363236C6C
:1056F000013B2364012304F1500204F1400104F151
:105700003C0004F0A3F8E064F8E5636C002BCED015
:1057100001336364CBE713883384A36C002BC6D0BA
:10572000013BA3643BB9636B08336363A36B013B29
:10573000A3630223B2E7636C002BB8D00233E8E71F
:10574000336923F002033361B1E7E36C002B3FF4CC
:10575000D5AD0133E364D1E5328E1A80236D002B81
:105760003FF4CCAD013B23653BB9E36B0833E36306
:10577000236C013B23640223BDE7E36C002B3FF461
:10578000BDAD0233E6E7B5F5C12FA36C50D1002BB8
:1057900035D1236D002B42D0304604F037F9002874
:1057A000FAD1336823F00103336023689B88DD0757
:1057B00012D40246256CAA422AD1C3F3022390FBDD
:1057C000F3F203FB1202002A3CD1B0FBF3F0726843
:1057D000130C1B04184370604FF4C021304604F0D2
:1057E00026F8336843F001033360F368590206D5A5
:1057F000336843F40073336033689A05FCD5D8F8F6
:105800000050D8F80C3005F4006503F4C0230EE016
:10581000E16B01EBC201496801320844CBE7D8F8DB
:105820000030D8F80C5003F4006305F4C0251D4384
:10583000A36C002B7FF447AD236D002B7FF443ADA9
:105840009A4680E5D8F800306FF0150AD8F80C3089
:1058500079E595F830307CE5284604F0D7F8002843
:10586000FAD13368002B3FF47CAD9A68002A3FF4EC
:1058700078AD998811F480597FF473AD186904F0FC
:1058800040F930684946083004F005F969E503F449
:10589000006302F4C0221343B3F5C02F3FF47BAD85
:1058A00033689B88DA043FF58FAD284604F013F87F
:1058B0008AE5824688E5D7F808A090E54FF0E02316
:1058C00010B50F499C691A6908689B690D4902F473
:1058D000803234B993B903464AB90A681044C01AF1
:1058E00010BD002B08BF03460AB9A342F5D90A68C8
:1058F00002440A604FF0E0221269EEE70446F3E743
:10590000D80B0020D40B002010220A4B002083F873
:10591000232045F6C052084B1A60084B45F6BF528B
:1059200018604FF0E0235A6198611A6942F007024B
:105930001A61704700ED00E0D80B0020D40B002066
:10594000684620F007018D4619B5FFF7B7FF1149EA
:10595000114B0868D3E90042001942F10002C3E983
:10596000000200230B6045F6C0530C4AD2E9004107
:10597000001BB0FBF3F043431B1941F10001C2E9E6
:10598000003100F0D3FFFCF79BFDBDE819408546D0
:10599000704700BFD40B00203808002030080020DA
:1059A0002DE9F041DFF8E08099B1421C0BD14FF0B6
:1059B000E022136923F0010313614FF07F43C8F81D
:1059C0000030BDE8F081D8F80060012807DC00272E
:1059D0000BE0431CD8F80060F7D140F2BA2040F247
:1059E000BB239842A8BF1846471EEFF3118510232A
:1059F00083F31288BFF36F8FFFF760FF4FF0E02350
:105A0000224C9969D4E9002380184FF0000243F139
:105A10000003C4E900031E4B1A601E4B1A68831A68
:105A20002ED445F6C05C0CFB073303F5BB433F3374
:105A3000B3FBFCF7131A40F2DC520CFB0733934222
:105A400038BF1346144A934228BF13464FF0E02252
:105A5000C8F80030013B9069536100238142936193
:105A6000A1EB000338BF9B19D4E900125B1842F187
:105A70000002C4E9003285F31188BFF36F8FA0E7FD
:105A800040F2DC53E2E700BFD80B002038080020CA
:105A9000D40B002030080020809DFF0038B5EFF3C4
:105AA0001185102383F31288BFF36F8F084B1C6896
:105AB000084B1B68E41AFFF701FF85F31188BFF359
:105AC0006F8F45F6C0532044B0FBF3F038BD00BFE4
:105AD000380800203008002038B5EFF31185102376
:105AE00083F31288BFF36F8F044B1C68FFF7E6FE49
:105AF00085F31188BFF36F8F204438BD380800202C
:105B0000B8B1384B1A6902F03002302A13D1364B43
:105B100098425ED9354B98425DD9354B98425CD955
:105B2000344B98425BD9344B98422ED9334B984230
:105B30003BD9012070471A6902F03002202A10D1A7
:105B40002F4B984245D92F4B984244D92E4B98421F
:105B500043D92E4B984242D92D4B984215D92D4B03
:105B6000E5E71B6903F03003102B10D12A4B984254
:105B70002FD92A4B98422ED9294B98422DD9294BFF
:105B800098422CD9284B9842D3D804200EE0274BBA
:105B900098421ED9264B98421DD9204B98421CD9B9
:105BA000244B98421BD9244BEDE70520234A136868
:105BB00023F00F0303431360136803F00F039842AD
:105BC0000EBF0346136803F00F03C01A18BF01206D
:105BD00070470020EAE70120E8E70220E6E703201B
:105BE000E4E700BF0008024480DE800200BD01053A
:105BF000809B8207007A030A8058840C80B2E60EEC
:105C000080CC060200990D048065140600321B0842
:105C100080FE210A00C2EB0B80C3C90100879303F9
:105C2000804A5D05000E270780D1F008002D310164
:105C3000005A620200B4C40400E1F50500200240ED
:105C400010B50446FCF700F803480121034A02F0AE
:105C5000E4FC204603F086FF10AA0008BCC300083D
:105C60002DE9F84304460D4600AFEFF311881023E9
:105C700083F31288BFF36F8F0428294A98BF294BFA
:105C8000E9468AB09668117C98BF53F820306A467E
:105C900088BF254BC2E9073140F201332348938482
:105CA000234BC2E9050442F8103F00234FF4315161
